:020000040800F2
:10000000B81C0020E5020008954F00087D2D00086F
:10001000914F0008ED030008C1A500080000000092
:10002000000000000000000000000000F55F000874
:10003000750E000800000000195F0008656A0008DE
:10004000FF020008FF020008FF020008FF0200088C
:10005000FF020008FF020008FF020008FF0200087C
:10006000FF020008FF020008FF020008710E0008EE
:10007000FF020008FF020008FF020008FF0200085C
:10008000FF02000800000000FF020008FF02000855
:1000900085A40008FF020008FF020008FF02000814
:1000A000FF020008516B0008FF020008FF02000871
:1000B000FF020008856B0008FF020008FF0200082D
:1000C000FF020008FF020008FF020008F15F0008BD
:1000D000FF020008FF020008FF020008FF020008FC
:1000E000FF020008FF020008FF020008FF020008EC
:1000F000FF020008FF020008FF02000800000000E5
:1001000000000000FF02000800000000FF020008DD
:10011000FF02000800000000FF020008FF020008C4
:10012000FF020008FF020008FF020008FF020008AB
:10013000FF0200080000000000000000FF020008AD
:10014000FF020008FF02000800000000000000009D
:10015000000000000000000000000000000000009F
:10016000000000000000000000000000FF02000886
:10017000FF02000800000000000000000000000076
:1001800000000000FF020008000000000000000066
:10019000000000000000000000000000000000005F
:1001A0000000000000000000FF020008FF0200083D
:1001B000FF020008FF020008FF0200080000000024
:1001C00000000000FF020008000000000000000026
:1001D000FF020008FF02000800F002F800F072F8C9
:1001E00014A696E8000CB244B344DA4501D100F0FD
:1001F00069F8BAE80F000FA696E83000A5EB0405F1
:1002000004EB0607AAEB0704A7F101074FEA15154F
:100210004FEA3414A4F10104AC4201D300F052F8C7
:1002200013F0010F18BFFB1A43F0010300F001F8AF
:10023000DBE71847E4B9000004BA00000A444FF0B5
:10024000000C10F8013B13F0070408BF10F8014B35
:100250001D1108BF10F8015B641E05D010F8016B7A
:10026000641E01F8016BF9D113F0080F1EBF10F8DE
:10027000014BAD1C0C1B09D16D1E58BF01F801CB01
:10028000FAD505E014F8016B01F8016B6D1EF9D584
:100290009142D6D37047000070470000002300242D
:1002A00000250026103A28BF78C1FBD8520728BF86
:1002B00030C148BF0B6070471FB50BF06AFC1FBD13
:1002C00010B510BD00F05CF81146FFF7F5FF0AF01D
:1002D000C1FD00F07AF803B4FFF7F2FF03BC00F0B1
:1002E0007DF800000948804709480047FEE7FEE71F
:1002F000FEE7FEE7FEE7FEE7FEE7FEE7FEE7FEE7D6
:1003000004480549054A064B704700003D6B00084C
:10031000D9010008B8160020B81C0020B818002029
:10032000B81800204FF0000200B5134694469646D8
:10033000203922BFA0E80C50A0E80C50B1F12001F8
:10034000BFF4F7AF090728BFA0E80C5048BF0CC0A6
:100350005DF804EB890028BF40F8042B08BF704704
:1003600048BF20F8022B11F0804F18BF00F8012B76
:10037000704770477047704700487047200300205F
:100380007546FFF7F9FFAE4605006946534620F073
:100390000700854618B020B5FFF7B2FFBDE8204042
:1003A0004FF000064FF000074FF000084FF0000B31
:1003B000AC46ACE8C009ACE8C009ACE8C009ACE8A0
:1003C000C00921F007018D46704710B50446AFF310
:1003D00000802046BDE81040FFF77DBF014918208E
:1003E000ABBEFEE72600020070470000FFE7FEE715
:1003F00084B08DF80F000291ADF806209DF80F0033
:100400000146009123281DD80099DFE801F012135E
:100410001415161B1B1B1B1B1B1B1B1B1B1B1B1B3E
:100420001B1B1B1B1B1B1B1B1B1B1B1B1B1B171823
:10043000191A08E007E006E005E004E003E002E046
:1004400001E000E0FFE7002004B0704700207047A3
:1004500080B582B041F28800C2F20000009040F600
:100460002041C2F200010022019206F02BFF009809
:1004700040F62001C2F2000106F00AFF019802B026
:1004800080BD000080B584B003900291039941F2D1
:100490008800C2F20000019006F0FAFE019806F012
:1004A000A1FE002004B080BD83B0029001918DF8C0
:1004B000032000208DF802009DF9020003B0704770
:1004C00080B5CEB04AA945914D9040F29830C2F225
:1004D000000090ED000A9FEDE11A20EE010ABDEE4A
:1004E000C00A10EE100AADF8260140F29C30C2F2AC
:1004F000000090ED000A20EE010ABDEEC00A10EEE9
:10050000100AADF8240140F2A030C2F2000090EDD4
:10051000000A20EE010ABDEEC00A10EE100AADF886
:10052000220142F60040C4F2010003F04DFDADF897
:10053000200141F22000C2F2000046900022027029
:10054000BDF82011BDF8263199421346A8BF0123FA
:10055000017841EA83010170BDF82011BDF8243112
:100560009942A8BF0122017841EA42010170BDF819
:100570002031BDF822C1017841F001026345A8BFD6
:10058000114601704D9991F848108DF81F110078AF
:10059000062840F0A980FFE740F28030C2F2000058
:1005A00037900088A0F500600AF0DDFF41EC100BE9
:1005B00051EC100B9FEDAA0B53EC102B3993389292
:1005C0000BF060F841EC100B51EC100B9FEDA60BFB
:1005D00053EC102B3B933A920AF000FE41EC100BC7
:1005E00051EC100B9FEDA20B53EC102B3D933C9262
:1005F0000AF0F4FD41EC100B51EC100B9FED9E0B3B
:1006000053EC102B3F933E920AF0E8FD41EC100BA7
:100610008DED340B40F61400C2F2000040900068EB
:100620000BF01CFA9DED341B41EC100B51EC110B3F
:1006300053EC102B0BF024F941EC100B51EC100B88
:100640000AF0E6FC014637984C914088A0F500601E
:100650000AF089FF389A399B41EC100B51EC100BD2
:100660000BF010F83A9A3B9B41EC100B51EC100B3D
:100670000AF0B4FD3C9A3D9B41EC100B51EC100B81
:100680000AF0ACFD3E9A3F9B41EC100B51EC100B75
:100690000AF0A4FD0246409841920A46419942EC74
:1006A000101B8DED420B40680BF0D8F99DED421BFD
:1006B00041EC100B51EC110B53EC102B0BF0E0F84C
:1006C00041EC100B51EC100B0AF0A2FC01464598CE
:1006D0004B9190ED020AB1EE400A90ED011A30EE16
:1006E000410A80ED000A60E241F22000C2F20000FF
:1006F0000078052840F0A980FFE740F28030C2F280
:10070000000027900088A0F500600AF02CFF41EC63
:10071000100B51EC100B9FED520B53EC102B299347
:1007200028920AF0AFFF41EC100B51EC100B9FED3B
:100730004E0B53EC102B2B932A920AF04FFD41ECF9
:10074000100B51EC100B9FED4A0B53EC102B2D931B
:100750002C920AF043FD41EC100B51EC100B9FED75
:10076000460B53EC102B2F932E920AF037FD41ECE1
:10077000100B8DED240B40F61400C2F200003090F7
:1007800000680BF06BF99DED241B41EC100B51EC54
:10079000110B53EC102B0BF073F841EC100B51ECD8
:1007A000100B0AF035FC014627984C918088A0F583
:1007B00000600AF0D8FE289A299B41EC100B51ECFE
:1007C000100B0AF05FFF2A9A2B9B41EC100B51ECA7
:1007D000100B0AF003FD2C9A2D9B41EC100B51ECF1
:1007E000100B0AF0FBFC2E9A2F9B41EC100B51ECE6
:1007F000100B0AF0F3FC0246309831920A46319908
:1008000042EC101B8DED320B80680BF027F99DED4B
:10081000321B41EC100B51EC110B53EC102B0BF075
:100820002FF841EC100B51EC100B0AF0F1FB0146D4
:1008300045984A9190ED020AB1EE400A90ED001AF7
:1008400030EE410A80ED010AAEE141F22000C2F231
:1008500000000078032840F0BB8011E000401C46F7
:100860003333333333330740000000000000B0401F
:100870007B14AE47E17A843F000000000000344062
:1008800040F28030C2F2000017904088A0F500606E
:100890000AF069FE41EC100B51EC100B9FEDCE0BF2
:1008A00053EC102B199318920AF0ECFE41EC100B4C
:1008B00051EC100B9FEDCA0B53EC102B1B931A92AB
:1008C0000AF08CFC41EC100B51EC100B9FEDC60BA9
:1008D00053EC102B1D931C920AF080FC41EC100B82
:1008E00051EC100B9FEDC20B53EC102B1F931E927B
:1008F0000AF074FC41EC100B8DED140B40F6140063
:10090000C2F20000209040680BF0A8F89DED141B87
:1009100041EC100B51EC110B53EC102B0AF0B0FF13
:1009200041EC100B51EC100B0AF072FB01461798CA
:100930004B918088A0F500600AF015FE189A199B6B
:1009400041EC100B51EC100B0AF09CFE1A9A1B9B09
:1009500041EC100B51EC100B0AF040FC1C9A1D9B53
:1009600041EC100B51EC100B0AF038FC1E9A1F9B47
:1009700041EC100B51EC100B0AF030FC02462098B1
:1009800021920A46219942EC101B8DED220B8068C2
:100990000BF064F89DED221B41EC100B51EC110B98
:1009A00053EC102B0AF06CFF41EC100B51EC100BC8
:1009B0000AF02EFB014645984A9190ED010AB1EEEE
:1009C000400A90ED001A30EE410A80ED020AEAE09A
:1009D00041F22000C2F200000078072840F0E180D8
:1009E000FFE740F28030C2F2000007900088A0F5D7
:1009F00000600AF0B8FD41EC100B51EC100B9FEDBC
:100A0000760B53EC102B099308920AF03BFE41EC55
:100A1000100B51EC100B9FED720B53EC102B0B9342
:100A20000A920AF0DBFB41EC100B51EC100B9FED2E
:100A30006E0B53EC102B0D930C920AF0CFFB41EC94
:100A4000100B51EC100B9FED6A0B53EC102B0F9316
:100A50000E920AF0C3FB41EC100B8DED000B40F63B
:100A60001400C2F20000109000680AF0F7FF9DED3C
:100A7000001B41EC100B51EC110B53EC102B0AF046
:100A8000FFFE41EC100B51EC100B0AF0C1FA0146CD
:100A900007984C914088A0F500600AF064FD089A20
:100AA000099B41EC100B51EC100B0AF0EBFD0A9A7C
:100AB0000B9B41EC100B51EC100B0AF08FFB0C9AC6
:100AC0000D9B41EC100B51EC100B0AF087FB0E9ABA
:100AD0000F9B41EC100B51EC100B0AF07FFB024610
:100AE000109803920A46039942EC101B8DED040BFB
:100AF00040680AF0B3FF9DED041B41EC100B51EC74
:100B0000110B53EC102B0AF0BBFE41EC100B51EC17
:100B1000100B0AF07DFA014607984B918088A0F5EA
:100B200000600AF020FD089A099B41EC100B51EC83
:100B3000100B0AF0A7FD0A9A0B9B41EC100B51EC2D
:100B4000100B0AF04BFB0C9A0D9B41EC100B51EC77
:100B5000100B0AF043FB0E9A0F9B41EC100B51EC6B
:100B6000100B0AF03BFB0246109811920A461199AD
:100B700042EC101B8DED120B80680AF06FFF9DEDAB
:100B8000121B41EC100B51EC110B53EC102B0AF023
:100B900077FE41EC100B51EC100B0AF039FA4A9039
:100BA00000E017E0FFE7FFE7FFE7459890ED020A56
:100BB000B1EE400A90ED011A30EE410A80ED000AD4
:100BC0004C984D9948604A984D9988604B984D993A
:100BD000C860FFE74EB080BD333333333333074053
:100BE000000000000000B0407B14AE47E17A843F73
:100BF000000000000000344080B5A4B003A80190BC
:100C000006A87821FFF78EFB002005900490039042
:100C1000ADF80A00FFE7BDF80A001D2800F3FC80CC
:100C2000FFE7012003F058FCBDF80A0009284BDC5F
:100C3000FFE740F28030C2F200000088A0F50060BB
:100C40000AF091FC41EC100B9FED811B53EC112B32
:100C500051EC100B0AF016FD41EC100B51EC100B8F
:100C60009FED7D0B53EC102B0AF0B8FA41EC100B02
:100C700051EC100B9FED7A0B53EC102B0AF0AEFAEF
:100C800041EC100B51EC100B9FED770B53EC102B3C
:100C90000AF0A4FA41EC100B51EC100B0AF0B8F971
:100CA00002460198BDF80A3006A941F82320BDF894
:100CB0000A2001EB820191ED001A90ED020A30EE5C
:100CC000010A80ED020AA0E0BDF80A000A2850DB04
:100CD000FFE7BDF80A0013284BDCFFE740F2803045
:100CE000C2F200004088A0F500600AF03CFC41EC34
:100CF000100B9FED571B53EC112B51EC100B0AF00E
:100D0000C1FC41EC100B51EC100B9FED530B53EC5D
:100D1000102B0AF063FA41EC100B51EC100B9FED15
:100D2000500B53EC102B0AF059FA41EC100B51EC1C
:100D3000100B9FED4D0B53EC102B0AF04FFA41ECCA
:100D4000100B51EC100B0AF063F902460198BDF844
:100D50000A3006A941F82320BDF80A2001EB8201E0
:100D600091ED001A90ED010A30EE010A80ED010AC2
:100D70004AE040F28030C2F200008088A0F50060B6
:100D80000AF0F1FB41EC100B9FED311B53EC112BE2
:100D900051EC100B0AF076FC41EC100B51EC100BEF
:100DA0009FED2D0B53EC102B0AF018FA41EC100BB1
:100DB00051EC100B9FED2A0B53EC102B0AF00EFA9E
:100DC00041EC100B51EC100B9FED270B53EC102B4B
:100DD0000AF004FA41EC100B51EC100B0AF018F970
:100DE00002460198BDF80A3006A941F82320BDF853
:100DF0000A2001EB820191ED001A90ED000A30EE1D
:100E0000010A80ED000AFFE7FFE7FFE7BDF80A00EF
:100E10000130ADF80A00FEE6019991ED020AB2EE4A
:100E2000041A80EE010A40F61400C2F2000080EDC0
:100E3000000A91ED010A80EE010A80ED010A91EDB0
:100E4000000A80EE010A80ED020A24B080BD00BFD6
:100E50003333333333330740000000000000B04029
:100E60007B14AE47E17A843F00000000000034406C
:100E7000704700007047000081B0EFF3108072B639
:100E80000090FFE7FEE7000083B002904AF20040C6
:100E9000C4F200000090009802990864029800686B
:100EA000D0F8800020F4F810029A1168526B40EAE2
:100EB0000240C1F88000009870300299486402989E
:100EC0000068D0F8800020F07060029A1168926B80
:100ED00040EA0260C1F880000098B030029988644E
:100EE000009800F5C4700299C864009800F5187065
:100EF00002990865009800F51E70029948650098EF
:100F00000190FFE70198009901F55471884208D2D9
:100F1000FFE7019900200860FFE701980430019085
:100F2000F0E703B07047000080B586B005900598E3
:100F30004C21FFF7F7F905990120487040F2801025
:100F4000C2F20000009000689FED120A8DED010AC8
:100F50009FED111A8DED021ADFED101ACDED031A77
:100F6000B7EE082A8DED042AF0EE410A04F060FF86
:100F700000989DED010A9DED021ADDED031A9DED2D
:100F8000042A0068F0EE410A04F052FF04F0F8FF72
:100F900006B080BD6F12833A00000000CDCCCC3D7E
:100FA00080B584B047F29050C1F6FF70006803909E
:100FB00047F29450C1F6FF700068029047F29850D3
:100FC000C1F6FF70006801900199039808440390EE
:100FD000039888B1FFE7039840F26411C2F2000160
:100FE00000910231082201F0CBFE009902981231E3
:100FF000042201F0C5FEFFE704B080BD80B584B0D7
:101000000290029820B9FFE701208DF80F0057E108
:101010000298006846F20041C4F20001884201D102
:10102000FFE7FFE702988068B0F5407F01D1FFE756
:10103000FFE7029890F85C0040B9FFE702990020B2
:1010400081F85D00029800F03FF9FFE7029801681F
:10105000886920F01000886100F032FB0190FFE702
:101060000298006880690007002815D5FFE700F0A6
:1010700027FB0199401A0B280DD3FFE70299086E50
:1010800040F0010008660299032081F85C0001200D
:101090008DF80F0014E1E3E702980168886940F0D9
:1010A0000100886100F00CFB0190FFE702980068E6
:1010B0008069C007A8B9FFE700F002FB0199401A58
:1010C0000B280DD3FFE70299086E40F00100086677
:1010D0000299032081F85C0001208DF80F00EFE0F9
:1010E000E4E702980168886940F00200886102988C
:1010F000006846F20041C4F20001884208D1FFE7CF
:101100000298406846F20051C4F200010860FFE70F
:101110000298007C012807D1FFE7029801688869DE
:1011200020F04000886106E002980168886940F07C
:1011300040008861FFE70298407C012807D1FFE763
:1011400002980168886940F48040886106E002984E
:101150000168886920F480408861FFE70298807CFC
:10116000012807D1FFE702980168886920F48050C0
:10117000886106E002980168886940F480508861BF
:10118000FFE702980068806920F44070029A1168B5
:1011900092681043886102980168886920F0A40071
:1011A000886102980168086920F0100008610298BF
:1011B000C068012807D1FFE702980168886940F0FC
:1011C000040088612BE00298C06830B3FFE7029802
:1011D000C068022819D0FFE702980168886940F0CA
:1011E0008000886102980168086940F01000086179
:1011F0000298C068032807D1FFE702980168886950
:1012000040F020008861FFE706E0029801688869E5
:1012100040F020008861FFE700E0FFE7FFE7029A67
:10122000116853699069D2F81CE0A0F1010C6FF0CD
:10123000FF0000EB0E2040EA4C60126A013A1043B6
:101240000022CFF6FF7202EB03421043C8610298FE
:101250008068B0F5407F1CD1FFE7029A1168536A9D
:10126000906AD2F82CE001386FF0FF0C0CEB0E2CDA
:1012700040EA0C00D2F830C06FF00F0202EB0C1203
:1012800010430022CFF6FF7202EB03421043C86006
:10129000FFE702980168C26BD1F8C0001043C1F8A3
:1012A000C0000298FFF7F0FD0299002088650299BE
:1012B0000866029A012182F85C108DF80F00FFE7A2
:1012C0009DF80F0004B080BD80B588B00790002065
:1012D000069005900490039002900798006846F2EB
:1012E0000041C4F20001884234D1FFE74FF00070A2
:1012F00002F076FCFFE741F25800C4F202000168F8
:1013000041F000710160006800F0007001900198E8
:10131000FFE7FFE741F24C00C4F20200016841F030
:1013200002010160006800F0020000900098FFE7F1
:101330004FF440700290022003900020049005902A
:101340000920069040F20040C4F6000002A900F017
:1013500003F8FFE708B080BD8BB00A900991002028
:101360000890FFE7099800680899C840002800F035
:10137000A581FFE709980068089A0121914008407B
:1013800007900798002800F09581FFE709984068CA
:1013900000F00300012807D0FFE70998406800F03B
:1013A000030002282FD1FFE70A988068069008986A
:1013B0004100032000FA01F106988843069009983D
:1013C000C0680899490000FA01F1069808430690A0
:1013D00006980A9988600A98406806900899012042
:1013E00000FA01F106988843069009984068C0F316
:1013F0000010089900FA01F1069808430690069833
:101400000A994860FFE70998406800F00300032844
:1014100018D0FFE70A98C06806900898410003209A
:1014200000FA01F1069888430690099880680899A7
:10143000490000FA01F106980843069006980A99B7
:10144000C860FFE70998406800F00300022826D131
:10145000FFE70A9808996FF0030202EA5101084475
:10146000006A0690089800F0070081000F2000FA3B
:1014700001F106988843069009980069089901F0DF
:101480000701890000FA01F10698084306900698C2
:101490000A99089B02EA530211440862FFE70A987E
:1014A0000068069008984100032000FA01F10698B0
:1014B000884306900998406800F0030008994900A5
:1014C00000FA01F106980843069006980A99086008
:1014D000099880798007002800F0EB80FFE7FFE79C
:1014E00041F26000C4F20200016841F001010160B4
:1014F000006800F0010005900598FFE7089820F0CB
:1015000003000821C4F2010140580690089800F039
:10151000030081000F2000FA01F10698884306902D
:101520000A98B0F1904F03D1FFE70020049042E009
:101530000A9840F20041C4F60001884203D1FFE757
:101540000120039034E00A9840F60001C4F600013F
:10155000884203D1FFE70220029026E00A9840F675
:101560000041C4F60001884203D1FFE70320019047
:1015700018E00A9841F20001C4F60001884203D144
:10158000FFE7042000900AE00A9941F20042C4F605
:1015900000020620914208BF05200090FFE7009856
:1015A0000190FFE701980290FFE702980390FFE7A0
:1015B00003980490FFE70498089901F0030189005B
:1015C00000FA01F10698084306900698089921F060
:1015D00003010822C4F20102885040F20840C4F21C
:1015E00001000068069007990698884306900998BC
:1015F0008079C006002805D5FFE7079906980843BB
:101600000690FFE7069840F20841C4F20101086025
:1016100040F20C40C4F20100006806900799069859
:1016200088430690099880798006002805D5FFE751
:101630000799069808430690FFE7069840F20C4188
:10164000C4F20101086040F20440C4F201000068E5
:101650000690079906988843069009988079800734
:10166000002805D5FFE70799069808430690FFE78D
:10167000069840F20441C4F20101086040F20040C3
:10168000C4F2010000680690079906988843069006
:1016900009988079C00728B1FFE7079906980843A1
:1016A0000690FFE7069840F20041C4F2010108608D
:1016B000FFE7FFE708980130089053E60BB070474A
:1016C00041F2B060C2F200000068704740F214308E
:1016D000C2F20000026841F2B061C2F20001086883
:1016E000104408607047000080B582B000208DF87B
:1016F0000700032000F0A2F80F2000F00DF820B141
:10170000FFE701208DF8070002E000F049F8FFE74D
:101710009DF8070002B080BD80B582B00190002026
:101720008DF8030040F21430C2F20000006878B374
:10173000FFE740F22400C2F20000006840F21431DA
:10174000C2F200010A684FF47A71B1FBF2F1B0FB0A
:10175000F1F001F00BFBB0B9FFE701980F280DD8AD
:10176000FFE701994FF0FF30002200F04FF8019899
:1017700040F21831C2F20001086003E001208DF848
:101780000300FFE703E001208DF80300FFE703E01B
:1017900001208DF80300FFE79DF8030002B080BD33
:1017A00080B582B0FFE741F26000C4F20200016838
:1017B00041F001010160006800F001000190019812
:1017C000FFE7FFE741F25800C4F20200016841F070
:1017D00080510160006800F0805000900098FFE7A1
:1017E000202001F0B5FA01F07BFA002001F0A2FA06
:1017F00001F06CFA02B080BD80B582B08DF80700B0
:101800009DF9070008F026FF02B080BD80B586B0C4
:101810008DF817000491039208F04CFF02909DF997
:101820001700019002980499039A03F057FC0146AF
:10183000019808F0ADFF06B080BD000080B582B011
:101840000190019808F0C6FF02B080BD82B00190FF
:1018500001980068009001990120C1F8E8020199FF
:10186000002081F8E002009AB2F8541041F0010122
:10187000A2F85410009AB2F8541041F00201A2F8F4
:10188000541002B07047000080B584B003908DF80A
:101890000B109DF80B000146019120B1FFE7019864
:1018A000012815D027E00398806958B1FFE705F0BB
:1018B000DDF84EF61051CEF20001086820F0060067
:1018C0000860FFE70398D0F8F00206F0E5FB12E0AD
:1018D0000398D0F8F00206F0C5FC0398806948B17F
:1018E000FFE74EF61051CEF20001086840F0060006
:1018F0000860FFE7FFE704B080BD000084B00390FC
:10190000ADF80A10ADF808200193BDF80A000006F2
:1019100000280CD5FFE70398BDF80A1001F0070175
:1019200001EB810100EBC100283000900AE0039830
:10193000BDF80A1001EB810100EBC10000F5B470A5
:101940000090FFE7BDF8080038B9FFE700990020D4
:10195000087301980099C8800AE000990120087373
:10196000019800990881BDF8060000994881FFE7B9
:10197000002004B07047000080B582B001908DF85F
:101980000310019AD2F8F0029DF8031001EB8103D5
:1019900002EBC302D26B06F037F902B080BD000043
:1019A00080B582B001908DF80310019AD2F8F00250
:1019B0009DF8031001EB810302EBC302D2F87C21F6
:1019C00006F0C8F902B080BD80B584B002908DF8F1
:1019D00007109DF80700000600280FD5FFE70298C2
:1019E0009DF8071001F0070101EB810100EBC10038
:1019F000283000900099012048700FE002989DF86F
:101A0000071001F0070101EB810100EBC10000F5B7
:101A1000B4700090009900204870FFE79DF807001F
:101A200000F0070000990870FFE7029890F8A802FC
:101A3000012804D1FFE702208DF80F0014E002997D
:101A4000012081F8A802FFE7FFE7029800680099EB
:101A500007F046FBFFE70299002081F8A802FFE7A4
:101A600000208DF80F00FFE79DF80F0004B080BD47
:101A700080B584B002908DF807109DF8070000F043
:101A80000F0002994968884204D9FFE701208DF8C8
:101A90000F004DE09DF80700000600280FD5FFE776
:101AA00002989DF8071001F0070101EB810100EB9E
:101AB000C100283000900099012048700FE0029882
:101AC0009DF8071001F0070101EB810100EBC10057
:101AD00000F5B4700090009900204870FFE700996D
:101AE000002088709DF8070000F00700009908703A
:101AF000FFE7029890F8A802012804D1FFE702202E
:101B00008DF80F0014E00299012081F8A802FFE788
:101B1000FFE702980068009907F0D2FCFFE70299FE
:101B2000002081F8A802FFE700208DF80F00FFE7F2
:101B30009DF80F0004B080BD80B586B0059004917B
:101B4000ADF80E20BDF80E004004002876D5FFE762
:101B500005980068B0F850000499097800EBC100BE
:101B6000059909680844B0F802046FF39F20ADF8A6
:101B70000C0004988069BDF80C10884207D3FFE779
:101B8000BDF80C2004998869801A886103E00499E3
:101B900000208861FFE704988069F8B9FFE7FFE754
:101BA000059800680499097830F821004BF68F7188
:101BB0000840ADF80A00BDF80A0080F40050ADF806
:101BC0000A00BDF80A0048F2800108430599096837
:101BD000049A127821F82200FFE7FFE7BDF80E0013
:101BE000400600281BD5FFE7FFE7FFE705980068E0
:101BF0000499097830F8210048F68F710840ADF853
:101C00000800BDF8080048F2C001084305990968BA
:101C1000049A127821F82200FFE7FFE7FFE7BDF8FA
:101C20000C0050B1FFE705980068049A51691289C9
:101C3000BDF80C3008F038FCFFE775E00598006847
:101C4000B0F850000499097800EBC10005990968C3
:101C50000844B0F806046FF39F20ADF80C00049818
:101C60008069BDF80C10884207D3FFE7BDF80C204F
:101C700004998869801A886103E0049900208861CA
:101C8000FFE704988069F8B9FFE7FFE70598006867
:101C90000499097830F821004BF68F710840ADF8AF
:101CA0000600BDF8060080F40050ADF80600BDF84F
:101CB000060048F28001084305990968049A1278E1
:101CC00021F82200FFE7FFE7BDF80E0040060028DC
:101CD0001BD4FFE7FFE7FFE7059800680499097840
:101CE00030F8210048F68F710840ADF80400BDF8C7
:101CF000040048F2C001084305990968049A127863
:101D000021F82200FFE7FFE7FFE7BDF80C0050B124
:101D1000FFE705980068049A51695289BDF80C30B4
:101D200008F0C2FBFFE7FFE7BDF80C0006B080BD7E
:101D300080B5A6B025902491ADF88E20BDF88E0018
:101D40004006002840F1B781FFE725980068B0F809
:101D500050002499097800EBC100259909680844CE
:101D6000B0F802046FF39F20ADF8860024988069D4
:101D7000BDF88610884207D9FFE7BDF88620249970
:101D80008869801A886103E0249900208861FFE750
:101D900024988069002840F0B080FFE7FFE724988E
:101DA000407808BBFFE7FFE725980068209025985A
:101DB0000068B0F85010209808442090209824998A
:101DC000097800EBC10000F202401F90FFE71F9965
:101DD000088820F4F84008801F99088840F40040E3
:101DE0000880FFE7FFE71DE024984078012818D11C
:101DF000FFE7FFE7259800681D9025980068B0F878
:101E000050101D9808441D901D982499097800EBE6
:101E1000C10000F202401C901C9900200880FFE7DE
:101E2000FFE7FFE7FFE7FFE7259800681B9024988E
:101E3000407808BBFFE7FFE72598006819902598D0
:101E40000068B0F85010199808441990199824990E
:101E5000097800EBC10000F206401890FFE71899DE
:101E6000088820F4F84008801899088840F4004059
:101E70000880FFE7FFE718E024984078012813D195
:101E8000FFE725980068B0F850101B9808441B9095
:101E90001B982499097800EBC10000F206401A90C3
:101EA0001A9900200880FFE7FFE7FFE725982499AB
:101EB0000978FFF761FDBDF88E00400400281BD5AE
:101EC000FFE7FFE7FFE7259800682499097830F8D5
:101ED000210048F68F710840ADF85A00BDF85A004D
:101EE0004CF28001084325990968249A127821F858
:101EF0002200FFE7FFE7FFE7DCE0BDF88E004004CB
:101F000000281BD5FFE7FFE7FFE725980068249925
:101F1000097830F8210048F68F710840ADF8580074
:101F2000BDF858004CF28001084325990968249AAD
:101F3000127821F82200FFE7FFE7FFE7249890F8E6
:101F40002400012840F0B580FFE7BDF886202499E1
:101F5000486910444861BDF886202499C869104436
:101F6000C86124980169006A884209D3FFE7249870
:101F700000692290229A2499086A801A086216E061
:101F80002498006A40B9FFE7BDF8860022902499A2
:101F9000002081F8240009E02499002081F8240021
:101FA0002499096A229124990862FFE7FFE7FFE775
:101FB00024984078002853D1FFE7FFE72598006870
:101FC000159025980068B0F85010159808441590A1
:101FD00015982499097800EBC10000F20240149092
:101FE000FFE722983F2816D3FFE7FFE72298400932
:101FF00013909DF88800C00620B9FFE713980138B8
:102000001390FFE713994FF4004040EA81201499A0
:102010000880FFE721E0229858B9FFE71499088863
:1020200020F4F84008801499088840F400400880A3
:1020300012E0FFE72298400813909DF88800C0073F
:1020400020B1FFE7139801301390FFE71398800247
:1020500014990880FFE7FFE7FFE7FFE7FFE71DE0D0
:1020600024984078012818D1FFE7FFE725980068F9
:10207000129025980068B0F85010129808441290F9
:1020800012982499097800EBC10000F202401190E7
:10209000229811990880FFE7FFE7FFE7FFE72598FF
:1020A0000068249A51691289BDF8883008F04EFA08
:1020B000FFE7FFE7B3E125980068B0F850002499E6
:1020C000097800EBC100259909680844B0F80604B6
:1020D0006FF39F20ADF8860024988069BDF88610C4
:1020E000884207D3FFE7BDF8862024998869801AC3
:1020F000886103E0249900208861FFE724988069C3
:10210000002840F0B080FFE7FFE72498407808BB44
:10211000FFE7FFE725980068109025980068B0F861
:10212000501010980844109010982499097800EBEA
:10213000C10000F202400F90FFE70F99088820F4D9
:10214000F84008800F99088840F400400880FFE7B5
:10215000FFE71DE024984078012818D1FFE7FFE74A
:10216000259800680D9025980068B0F850100D98DB
:1021700008440D900D982499097800EBC10000F2F5
:1021800002400C900C9900200880FFE7FFE7FFE772
:10219000FFE7FFE7259800680B902498407808BB7C
:1021A000FFE7FFE725980068099025980068B0F8D8
:1021B000501009980844099009982499097800EB6F
:1021C000C10000F206400890FFE70899088820F453
:1021D000F84008800899088840F400400880FFE72C
:1021E000FFE718E024984078012813D1FFE72598ED
:1021F0000068B0F850100B9808440B900B98249985
:10220000097800EBC10000F206400A900A9900200C
:102210000880FFE7FFE7FFE7259824990978FFF793
:10222000ABFBBDF88E00400400281BD4FFE7FFE79E
:10223000FFE7259800682499097830F8210048F6CE
:102240008F710840ADF81A00BDF81A004CF28001F9
:10225000084325990968249A127821F82200FFE79B
:10226000FFE7FFE7DAE0BDF88E00400400281BD44A
:10227000FFE7FFE7FFE7259800682499097830F821
:10228000210048F68F710840ADF81800BDF818001D
:102290004CF28001084325990968249A127821F8A4
:1022A0002200FFE7FFE7FFE7249890F824000128C9
:1022B00040F0B380FFE7BDF88620249948691044B8
:1022C0004861BDF886202499C8691044C8612498E3
:1022D0000169006A884209D3FFE7249800692290C7
:1022E000229A2499086A801A086216E02498006AE3
:1022F00040B9FFE7BDF8860022902499002081F8BC
:10230000240009E02498006A2290249900200862A1
:10231000249981F82400FFE7FFE7FFE7259800688C
:10232000059024984078002853D1FFE7FFE72598CF
:102330000068039025980068B0F85010039808448E
:10234000039003982499097800EBC10000F206403D
:102350000290FFE722983F2816D3FFE7FFE7229875
:10236000400901909DF88800C00620B9FFE7019858
:1023700001380190FFE701994FF4004040EA8120C5
:1023800002990880FFE721E0229858B9FFE70299F7
:10239000088820F4F84008800299088840F400403A
:1023A000088012E0FFE72298400801909DF888001D
:1023B000C00720B1FFE7019801300190FFE70198C5
:1023C000800202990880FFE7FFE7FFE7FFE7FFE7EA
:1023D00018E024984078012813D1FFE72598006879
:1023E000B0F850100598084405900598249909788C
:1023F00000EBC10000F20640049022980499088086
:10240000FFE7FFE7FFE725980068249A51695289A2
:10241000BDF8883008F09AF8FFE7FFE7FFE7FFE72D
:10242000259800682499097830F8210048F6BF7192
:102430000840ADF80200BDF8020080F01000ADF8D1
:102440000200BDF8020080F02000ADF80200BDF8E7
:10245000020048F28001084325990968249A1278FD
:1024600021F82200FFE7002026B080BD82B0019055
:102470008DF8031001989DF8031001F0070101EB9E
:10248000810100EBC100D0F8840102B07047000068
:1024900080B586B004908DF80F10ADF80C208DF843
:1024A0000B3000208DF80A009DF80F000006002870
:1024B0000FD5FFE704989DF80F1001F0070101EB1D
:1024C000810100EBC1002830019001990120487082
:1024D0000FE004989DF80F1001F0070101EB810156
:1024E00000EBC10000F5B470019001990020487024
:1024F000FFE79DF80F0000F0070001990870BDF894
:102500000C00019908619DF80B000199C8700198B1
:10251000407820B1FFE701990878C881FFE79DF86E
:102520000B00022804D1FFE7019900200871FFE7A2
:10253000FFE7049890F8A802012804D1FFE70220E1
:102540008DF8170015E00499012081F8A802FFE733
:10255000FFE704980068019906F09CFAFFE70499E8
:10256000002081F8A802FFE79DF80A008DF8170007
:10257000FFE79DF8170006B080BD000080B586B06B
:1025800005908DF813100392029305989DF813108F
:1025900001F0070101EB810100EBC10000F5B4700F
:1025A0000190039801994861029801998861019905
:1025B0000020C861019948709DF8130000F00700E1
:1025C000019908709DF81300400730B9FFE705989E
:1025D0000068019907F05CF805E00598006801992A
:1025E00007F056F8FFE7002006B080BD80B584B044
:1025F00002908DF807109DF8070000F0070002997F
:102600004968884204D9FFE701208DF80F004BE0AC
:102610009DF80700000600280FD5FFE702989DF8F7
:10262000071001F0070101EB810100EBC100283028
:1026300000900099012048700DE002989DF8071065
:1026400001EB810100EBC10000F5B470009000992E
:1026500000204870FFE70099012088709DF807006E
:1026600000F0070000990870FFE7029890F8A802B0
:10267000012804D1FFE702208DF80F0014E0029931
:10268000012081F8A802FFE7FFE70298006800999F
:1026900006F0BAFFFFE70299002081F8A802FFE7E1
:1026A00000208DF80F00FFE79DF80F0004B080BDFB
:1026B00080B586B005908DF81310039202930598AB
:1026C0009DF8131001F0070101EB810100EBC1003F
:1026D0002830019003980199486102980199886116
:1026E0000199012081F824000299019A1162019A4E
:1026F0000021D161019948709DF8130000F0070096
:10270000019908709DF81300400730B9FFE705985C
:102710000068019906F0BCFF05E005980068019982
:1027200006F0B6FFFFE7002006B080BD80B582B09E
:1027300001900198006807F0ADFE00909DF801003F
:102740000006002804D5FFE7019802F0FDFFDFE056
:102750009DF801004007002810D5FFE701980168A7
:10276000B1F8440020F48060A1F84400019800F022
:10277000EFF90198002100F02BFAC9E09DF8010063
:102780004006002809D5FFE701980168B1F8440028
:1027900020F48040A1F84400BAE09DF801008006D2
:1027A000002809D5FFE701980168B1F8440020F43A
:1027B0000050A1F84400ABE09DF80100C0060028DD
:1027C0002AD5FFE701980168B1F8400020F0040025
:1027D000A1F8400001980168B1F8400020F008001D
:1027E000A1F84000019890F8E002012808D1FFE725
:1027F0000198002180F8E0120198FFF745F8FFE703
:10280000019800F0C1F901980168B1F8440020F482
:102810008050A1F844007BE09DF8010000070028EB
:102820001CD5FFE701980168B1F8400040F00800AE
:10283000A1F8400001980168B1F8440020F400605C
:10284000A1F8440001980168B1F8400040F004008C
:10285000A1F84000019800F021FA59E09DF800002D
:102860000006002834D5FFE701980168B1F844005C
:1028700020F08000A1F84400019890F8E00210BB1D
:10288000FFE701980168B1F8400040F00400A1F8AA
:10289000400001980168B1F8400040F00800A1F83C
:1028A00040000198012180F8E01201980068B0F81A
:1028B000540000F0F0008008019AC2F8E402019888
:1028C000FEF7E2FF03E0019800F0E8F9FFE71FE000
:1028D0009DF80100800700280CD5FFE701980168EA
:1028E000B1F8440020F40070A1F84400019800F011
:1028F00065F90DE09DF80100C00748B1FFE70198B8
:102900000168B1F8440020F48070A1F84400FFE7AA
:1029100002B080BDF0B589B00790079820B9FFE7F5
:1029200001208DF82300E4E0079890F8A90240B94F
:10293000FFE70799002081F8A802079800F0DEF869
:10294000FFE70799032081F8A9020798006806F0BD
:10295000A7FD00208DF81B00FFE79DF81B000799DD
:102960004968884244D2FFE707989DF81B1001EBA5
:10297000810100EBC101012081F829009DF81B00B5
:10298000079900EB800201EBC20181F828009DF855
:102990001B00079900EB800201EBC201C886079873
:1029A0009DF81B1001EB810100EBC101002081F8B3
:1029B0002B0007999DF81B2002EB820201EBC2015C
:1029C000886307999DF81B2002EB820201EBC2018C
:1029D000C86307999DF81B2002EB820201EBC2013C
:1029E0000864FFE79DF81B0001308DF81B00B4E779
:1029F00000208DF81B00FFE79DF81B000799496830
:102A000088423ED2FFE707989DF81B1001EB810139
:102A100000EBC101002081F869019DF81B10079AA5
:102A200001EB810302EBC30282F8681107999DF85C
:102A30001B2002EB820201EBC20181F86B010799B6
:102A40009DF81B2002EB820201EBC201C1F8780164
:102A500007999DF81B2002EB820201EBC201C1F82D
:102A60007C0107999DF81B2002EB820201EBC20159
:102A7000C1F88001FFE79DF81B0001308DF81B00B5
:102A8000BAE7DDF81CE0CDF814E0DEF80000DEF86F
:102A90000410DEF80820DEF80C30DEF810C0DEF896
:102AA0001440DEF81850DEF81C60DEF82070EE46A8
:102AB000CEF81070CEF80C60CEF80850CEF8044076
:102AC000CEF800C006F0C8FC0799002081F8240069
:102AD0000799012081F8A9020798C069012804D14B
:102AE000FFE70798FEF7B2FEFFE700208DF823000E
:102AF000FFE79DF8230009B0F0BD000080B584B069
:102B000003900398006845F60041C4F20001884232
:102B10001CD1FFE7002001F08DF8FFE741F25800DB
:102B2000C4F20200016841F400010160006800F491
:102B3000000002900298FFE7142001900022114645
:102B4000FEF764FE0198FEF757FEFFE704B080BD74
:102B500080B582B0019001208DF803000198806853
:102B6000022803D0FFE7FEF787F9FFE70198D0F8C6
:102B7000F0029DF8031005F0C9FA0198D0F8F002B0
:102B800005F03AFA02B080BD80B582B0019001989C
:102B9000806958B1FFE74EF61051CEF20001086887
:102BA00020F00600086003F061FFFFE70198D0F80D
:102BB000F00205F071FA02B080BD000080B582B06D
:102BC00001900198D0F8F00205F078FA02B080BDCB
:102BD00080B584B002908DF80710FFE7029890F856
:102BE000A802012804D1FFE702208DF80F001AE0A7
:102BF0000299012081F8A802FFE7FFE79DF807008E
:102C0000029981F82400029800689DF8071007F0E7
:102C10008DFCFFE70299002081F8A802FFE7002061
:102C20008DF80F00FFE79DF80F0004B080BD000095
:102C300080B582B001900199D1F8F00201F52C71B4
:102C400005F08EFA02B080BD80B582B00090FFE73B
:102C5000009890F8A802012804D1FFE702208DF81F
:102C6000070017E00099012081F8A802FFE7FFE7BD
:102C70000098006807F0F6FB0098006806F0E0FB9B
:102C8000FFE70099002081F8A802FFE700208DF8F7
:102C90000700FFE79DF8070002B080BD80B582B055
:102CA00001900198D0F8F00205F0DCFA01988069F3
:102CB00048B1FFE74EF61051CEF20001086840F02F
:102CC00006000860FFE702B080BD000047F208017F
:102CD000C4F20001086840F48040086070470000BA
:102CE00080B582B03021C4F20101086840F00100D3
:102CF0000860FEF7E5FC0090FFE73020C4F2010019
:102D00000068000700280CD4FFE7FEF7D9FC009903
:102D1000401A0B2804D3FFE703208DF8070004E0D6
:102D2000EBE700208DF80700FFE79DF8070002B0F1
:102D300080BD000081B000903021C4F2010108681C
:102D400020F00200009A1043086001B070470000B4
:102D500081B000903021C4F20101086820F03000F9
:102D6000009A1043086001B07047000080B582B03F
:102D70000190019803F04CFE02B080BDFFE7FEE732
:102D800083B0029001918DF8032000208DF802009D
:102D90008DF80200FFE79DF802009DF803108842BD
:102DA00029DAFFE70298000F092809D8FFE70298FF
:102DB000000F303001999DF8022001F8120009E05F
:102DC0000299372000EB117001999DF8022001F85B
:102DD0001200FFE702980001029001989DF802108E
:102DE00000EB410100204870FFE79DF80200013030
:102DF0008DF80200CFE703B07047000080B584B0C3
:102E00000390029100208DF807000298406808B1F5
:102E1000FFE7FFE74FF0A04000F0AEF8009040F26F
:102E20000010C5F2000000F0A7F801460098084322
:102E300038BBFFE702984068A8B1FFE703988068B5
:102E400043F2E001CFF6C0710840029A1168D2F84F
:102E500004C09368D26841EA0C0119431143084346
:102E6000039988600CE00398806843F2E001CFF694
:102E7000C071084002990968084303998860FFE718
:102E800003E001208DF80700FFE79DF8070004B07C
:102E900080BD000083B002900191019820B9FFE746
:102EA00002984030009005E040F20C30C5F200007E
:102EB0000090FFE7009803B07047000081B00090D9
:102EC000009988684FF6C072C5F6FF72104088609E
:102ED00001B0704781B00090009880684FF6C071D3
:102EE000C7F6FF71084001300099886001B0704753
:102EF00081B000900098806840F080504FF6C0711B
:102F0000C7F6FF7108400099886001B07047000063
:102F100080B584B00390029100208DF807000398DB
:102F200000F02AF878B9FFE70398C0684CF218015E
:102F30008843029A11685368926819431143084301
:102F40000399C86003E001208DF80700FFE79DF8B2
:102F5000070004B080BD000081B0009000980068B8
:102F600000F0010001B0704781B0009000988068C7
:102F7000C00F01B07047000081B0009000988068D9
:102F800000F0010001B0704780B584B00390029159
:102F900000208DF807000298406808B1FFE7FFE7BE
:102FA0000398FFF7E9FFC0BBFFE702984068C8B18C
:102FB000FFE70398C0684CF21C01CFF6F07108409F
:102FC000029A1168D2F808E0D2F80CC0136941EAFD
:102FD0000E0141EA0C011943526911430843039958
:102FE000C86014E00398C0684CF21C01CFF6F07181
:102FF0000840029A1168D2F80CC01369526941EA7C
:103000000C011943114308430399C860FFE7039873
:103010000299496800F018F803E001208DF80700D4
:10302000FFE79DF8070004B080BD000082B001906A
:1030300000910198C06820F00300009908430199AD
:10304000C86002B07047000082B001900091019802
:10305000006B20F00F00009908430199086302B04B
:103060007047000084B00390029101920398029986
:1030700001F4407100EB911030300090009800682E
:10308000029901F01F021F21914088430199C1F369
:103090008461914008430099086004B070470000C3
:1030A00081B00090009880684FF6C071C7F6FF713C
:1030B000084004300099886001B0704784B00390E4
:1030C000029101920398029901F0007100EBD15036
:1030D00014300090009800680299C1F3045207214F
:1030E000914088430199914008430099086004B0D9
:1030F0007047000083B00290019100920098002177
:10310000C4F27F0188420AD1FFE7019A6FF3DF42E0
:103110000299D1F8B0001043C1F8B0000CE0019959
:103120000020CFF6F87060EA01020299D1F8B000F1
:103130001040C1F8B000FFE703B0704782B00190C3
:1031400000910198D0F8C00043F6FF7188430099C0
:1031500008430199C1F8C0000198006920F480304B
:103160000099002918BF012140EA01400199086136
:1031700002B0704782B0019000910198006940F25E
:1031800003418843009908430199086102B07047E0
:1031900082B001900091019880684FF6C071C3F62B
:1031A000FF710140009800F08040084400F10040A9
:1031B0000199886002B0704782B00190019A41F293
:1031C0004800C4F2020001681143016000680199DF
:1031D00008400090009802B07047000082B0019053
:1031E000019A41F24C00C4F20200016811430160EF
:1031F0000068019908400090009802B070470000F4
:1032000082B00190019A41F24C00C4F202000168C0
:10321000114301600068019908400090009802B0D5
:103220007047000082B00190019A41F24C00C4F254
:103230000200016811430160006801990840009094
:10324000009802B07047000082B00190019A41F2EC
:103250004C00C4F20200016811430160006801994A
:1032600008400090009802B07047000082B00190C2
:10327000019A41F24C00C4F202000168114301605E
:103280000068019908400090009802B07047000063
:1032900082B00190019A41F24C00C4F20200016830
:1032A000114301600068019908400090009802B045
:1032B0007047000082B00190019A41F25800C4F2B8
:1032C0000200016811430160006801990840009004
:1032D000009802B07047000082B00190019A41F25C
:1032E0005800C4F2020001681143016000680199AE
:1032F00008400090009802B07047000082B0019032
:10330000019A41F25800C4F20200016811430160C1
:103310000068019908400090009802B070470000D2
:1033200082B00190019A41F26000C4F2020001688B
:10333000114301600068019908400090009802B0B4
:103340007047000082B00190019A41F26000C4F21F
:103350000200016811430160006801990840009073
:10336000009802B07047000085B0DDF814C00490EA
:10337000039102920193049800900598102811D1AE
:10338000FFE702980099039B4BF6B632C0F60002A5
:10339000D35C1944C86001980099039BD25C114426
:1033A000886010E002980099039B4BF6B632C0F695
:1033B0000002D35C1944886001980099039BD25C99
:1033C0001144C860FFE705B07047000083B0029069
:1033D0000191029800900099019A4BF6B630C0F620
:1033E0000000825C885840F00100885003B07047AC
:1033F00084B0039002910192039800900098029982
:103400004BF6BC32C0F60002515C405820F44050EC
:10341000019908430099029BD25C885004B0704720
:1034200084B0039002910192039800900098029951
:103430004BF6B632C0F60002515C084440684FF6C5
:10344000FF718843019908430099029BD25C1144A3
:10345000486004B07047000084B00390029101926C
:1034600003980090009802994BF6BC32C0F6000217
:10347000515C405844F21001884301990843009977
:10348000029BD25C885004B07047000084B0039067
:103490000291019203980090009802994BF6BC3279
:1034A000C0F60002515C405820F0800001990843AA
:1034B0000099029BD25C885004B0704784B003909E
:1034C0000291019203980090009802994BF6BC3249
:1034D000C0F60002515C405820F440600199084356
:1034E0000099029BD25C885004B0704784B003906E
:1034F0000291019203980090009802994BF6BC3219
:10350000C0F60002515C405820F0200001990843A9
:103510000099029BD25C885004B0704784B003903D
:103520000291019203980090009802994BF6BC32E8
:10353000C0F60002515C405820F040000199084359
:103540000099029BD25C885004B0704784B003900D
:103550000291019203980021C4F2020141406FF0F0
:10356000070000EAD110009002988000009900EB5B
:10357000810040F60002C4F20202805820F0FF00F1
:103580000199084302998900009B01EB830188504F
:1035900004B0704784B003900291019203980090A8
:1035A000009802994BF6BC32C0F60002515C4058BC
:1035B00020F44070019908430099029BD25C885026
:1035C00004B0704742F20000C4F20200006800F04C
:1035D0000F00704781B0009042F20001C4F2020176
:1035E000086820F00F00009A1043086001B070478F
:1035F00080B586B0039002910298006890FAA0F01E
:103600000490049820B9FFE720208DF8170005E00A
:103610000498B0FA80F08DF81700FFE79DF81700C6
:103620000190FFE7029800680199C84000284AD03D
:10363000FFE702980068019A01219140084000903C
:103640000098E0B3FFE702984068012805D0FFE743
:103650000298406802280DD1FFE703980099029A6A
:10366000926800F065F90398029A1168D26800F038
:1036700011F9FFE703980099029A126900F01AF90C
:1036800002984068022813D1FFE70098FF2807D866
:10369000FFE703980099029A526900F02FF806E0BC
:1036A00003980099029A526900F066F8FFE7FFE775
:1036B00003980099029A526800F0AEF8FFE701986B
:1036C00001300190AEE7002006B080BD82B00190CD
:1036D000009100980199886202B0704782B0019011
:1036E000009100980199886202B0704782B0019001
:1036F000009100980199886202B070478AB00590E5
:10370000049103920598006A0290049890FAA0F040
:103710000890089820B9FFE720208DF8270005E0E1
:103720000898B0FA80F08DF82700FFE702989DF81E
:1037300027108A000F219140884300900398019040
:10374000049890FAA0F00690069820B9FFE7202090
:103750008DF81F0005E00698B0FA80F08DF81F0084
:10376000FFE7009801999DF81F20920091400843BF
:10377000059908620AB070478AB0059004910392D7
:103780000598406A02900498000A90FAA0F0089008
:10379000089820B9FFE720208DF8270005E0089859
:1037A000B0FA80F08DF82700FFE702989DF8271007
:1037B0008A000F219140884300900398019004985B
:1037C000000A90FAA0F00690069820B9FFE72020A2
:1037D0008DF81F0005E00698B0FA80F08DF81F0004
:1037E000FFE7009801999DF81F209200914008433F
:1037F000059948620AB0704782B001900091009824
:103800000199886102B0704782B0019000910098E0
:103810000199886102B070478AB0059004910392C3
:10382000059800680290049890FAA0F00890089813
:1038300020B9FFE720208DF8270005E00898B0FAAE
:1038400080F08DF82700FFE702989DF827104A00C6
:10385000032191408843009003980190049890FAC6
:10386000A0F00690069820B9FFE720208DF81F00F1
:1038700005E00698B0FA80F08DF81F00FFE7009889
:1038800001999DF81F205200914008430599086056
:103890000AB0704783B0029001910092029840688C
:1038A00001998843009A514308430299486003B044
:1038B000704700008AB00590049103920598C06893
:1038C0000290049890FAA0F00890089820B9FFE7B9
:1038D00020208DF8270005E00898B0FA80F08DF8D8
:1038E0002700FFE702989DF827104A000321914026
:1038F0008843009003980190049890FAA0F00690F5
:10390000069820B9FFE720208DF81F0005E00698F3
:10391000B0FA80F08DF81F00FFE7009801999DF83C
:103920001F205200914008430599C8600AB07047B3
:103930008AB00590049103920598806802900498DB
:1039400090FAA0F00890089820B9FFE720208DF8A1
:10395000270005E00898B0FA80F08DF82700FFE70F
:1039600002989DF827104A00032191408843009057
:1039700003980190049890FAA0F00690069820B958
:10398000FFE720208DF81F0005E00698B0FA80F0D0
:103990008DF81F00FFE7009801999DF81F20520045
:1039A00091400843059988600AB0704782B0019041
:1039B00000910198C06820F0010000990843019926
:1039C000C86002B07047000082B001900091019879
:1039D000C06820F40000009908430199C86002B053
:1039E0007047000082B0019000910198006A20F0B9
:1039F0000D00009908430199086202B07047000069
:103A000082B0019000910198006A20F03200009984
:103A100008430199086202B07047000082B001902B
:103A200000910198C06820F40010009908430199A2
:103A3000C86002B07047000082B001900091019808
:103A4000C06820F46060009908430199C86002B022
:103A50007047000082B0019000910198C06820F486
:103A60008000009908430199C86002B070470000C7
:103A700081B000900099C86820F4C020C86001B0EF
:103A80007047000047F28001C4F20001086820F48A
:103A9000807008607047000041F20800C4F2020024
:103AA000006800F00C00704741F20001C4F202010E
:103AB000086840F4803008607047000041F2000060
:103AC000C4F202000068C0F34040704741F2980120
:103AD000C4F20201086840F001000860704700006D
:103AE00041F29800C4F202000068C0F34000704741
:103AF00084B0039002910192009341F20C01C4F250
:103B00000201086848F20C02CFF6FF121040039A37
:103B1000029B1A43019B42EA0322009B1A43104373
:103B2000086004B07047000041F20001C4F20201D5
:103B3000086840F0807008607047000041F20C0196
:103B4000C4F20201086840F080700860704700000D
:103B500041F20000C4F202000068C0F34060704708
:103B600081B0009041F28801C4F202010868009A15
:103B7000C2F304434FF0030C0CFA03FC20EA0C00E0
:103B8000D2B29A401043086001B0704781B00090F3
:103B900041F20801C4F20201086820F0F000009A26
:103BA0001043086001B0704781B0009041F20801F5
:103BB000C4F20201086820F4E060009A1043086033
:103BC00001B0704781B0009041F20801C4F20201D7
:103BD000086820F46050009A1043086001B07047F4
:103BE00081B0009041F28801C4F20201086820F01F
:103BF0004070009A1043086001B0704781B0009097
:103C000041F28801C4F20201086820F44020009AC1
:103C10001043086001B0704781B0009041F2080184
:103C2000C4F20201086820F00300009A1043086003
:103C300001B0704781B0009041F28801C4F20201E6
:103C4000086820F04060009A1043086001B0704797
:103C500081B000900099086840F04000086001B011
:103C60007047000081B000900099486840F008005B
:103C7000486001B07047000080B584B003900291A5
:103C800001208DF80700039800F05AF8002846D16B
:103C9000FFE7039800684FF6BF718843029A0092CD
:103CA0001168D2F804E0D2F80CC0136941EA0E01A1
:103CB00041EA0C0119435369194393691943D369C4
:103CC0001943126A11430843039908600398406836
:103CD00040F604718843029A9168D28A11430843DE
:103CE00003994860029881680020B0EBD12F06D17B
:103CF000FFE703984FF4805100F03CF8FFE702988B
:103D0000006AB0F5005F06D1FFE703980299496A9F
:103D100000F026F8FFE700208DF80700FFE7039981
:103D2000C86920F40060C8619DF8070004B080BD38
:103D300081B0009000988068C0B2C00901B070479F
:103D400081B0009000980068C0F3801001B0704707
:103D500081B000900098C06880B201B07047000048
:103D600082B001900091BDF800000199086102B095
:103D70007047000082B0019000910198406820F4E3
:103D80008050009908430199486002B070470000D4
:103D900082B0019000910198406820F010000099D5
:103DA00008430199486002B07047000083B0029058
:103DB000ADF8061002980C300090BDF8060000998E
:103DC000088003B07047000081B00090009840F276
:103DD0002401C2F20001086001B0704783B0029074
:103DE0000191002000900198007B8DF80000009860
:103DF00020F440700199896808430090009820F4ED
:103E000080600199496808430090009820F40060A0
:103E10000199096808430090009820F480500199A6
:103E2000C98908430090009820F40050019909695D
:103E300008430090009820F480400199C96A084323
:103E40000090009820F400400199C96A084300904E
:103E5000029842F60041C4F20101884208D0FFE70F
:103E6000029843F20041C4F2010188420FD1FFE7FA
:103E7000009820F470200199496908430090009847
:103E800020F080500199896908430090FFE702986B
:103E900042F60041C4F20101884208D0FFE70298CF
:103EA00043F20041C4F2010188421DD1FFE70098AE
:103EB00020F470000199496A08430090009820F0AE
:103EC00080700199C96908430090009820F0007043
:103ED0000199096A08430090009820F00050019968
:103EE000896A08430090FFE700980299486400201F
:103EF00003B0704782B001900091009A0199086A5E
:103F00001043086202B0704781B0009000996FF0D2
:103F10000100086101B0704781B0009000996FF016
:103F20000100086101B0704781B0009000990868F5
:103F300020F08000086001B07047000081B0009060
:103F40000099886820F08000886001B07047000008
:103F500081B000900099086840F08000086001B0CE
:103F60007047000081B000900099486C40F4004018
:103F7000486401B07047000081B000900099086863
:103F800040F00100086001B07047000081B000906F
:103F90000099086840F00100086001B07047000017
:103FA00081B000900099C86840F00100C86001B07D
:103FB0007047000081B000900099486940F001000E
:103FC000486101B07047000081B000900098406ADD
:103FD00001B0704780B584B00390029103980068E7
:103FE0000190039842F60041C4F2010188421DD0BD
:103FF000FFE70398B0F1804F18D0FFE7039840F235
:104000000041C4F20001884210D0FFE7039840F657
:104010000001C4F20001884208D0FFE7039843F290
:104020000041C4F20101884208D1FFE7019820F065
:1040300070000299496808430190FFE7039842F62F
:104040000041C4F20101884235D0FFE70398B0F186
:10405000804F30D0FFE7039840F20041C4F20001E6
:10406000884228D0FFE7039840F60001C4F200011F
:10407000884220D0FFE7039843F20041C4F20101D7
:10408000884218D0FFE7039844F20001C4F201010E
:10409000884210D0FFE7039844F20041C4F20101C6
:1040A000884208D0FFE7039844F60001C4F20101FA
:1040B000884208D1FFE7019820F440700299C9684E
:1040C00008430190FFE7019803990860039802995B
:1040D000896800F0BBF903980299098800F0CEF9CD
:1040E000039842F60041C4F20101884220D0FFE764
:1040F000039843F20041C4F20101884218D0FFE75F
:10410000039844F20001C4F20101884210D0FFE795
:10411000039844F20041C4F20101884208D0FFE74D
:10412000039844F60001C4F20101884206D1FFE77A
:1041300003980299096900F0A9F9FFE70398FFF7CE
:1041400039FF002004B080BD81B000900098006964
:1041500000F0010001B070478CB00B900A910A98F2
:10416000012803D1FFE70020079051E00A980428B6
:1041700003D1FFE70120069047E00A98102803D1F9
:10418000FFE7022005903DE00A98402803D1FFE7B1
:104190000320049033E00A98B0F5807F03D1FFE755
:1041A0000420039028E00A98B0F5806F03D1FFE760
:1041B000052002901DE00A98B0F5805F03D1FFE76B
:1041C0000620019012E00A98B0F5804F03D1FFE776
:1041D0000720009007E00A990920B1F5803F08BF49
:1041E00008200090FFE700980190FFE701980290F7
:1041F000FFE702980390FFE703980490FFE7049815
:104200000590FFE705980690FFE706980790FFE7FF
:1042100007988DF827000B989DF827204BF6C231A0
:10422000C0F60001895C0844183008909DF82710FA
:104230004BF6CC30C0F60000415C042000FA01F2DD
:1042400008990868904308600CB070478CB00B90D8
:104250000A910A98012803D1FFE70020079051E056
:104260000A98042803D1FFE70120069047E00A9846
:10427000102803D1FFE7022005903DE00A9840286E
:1042800003D1FFE70320049033E00A98B0F5807F64
:1042900003D1FFE70420039028E00A98B0F5806F6F
:1042A00003D1FFE7052002901DE00A98B0F5805F7A
:1042B00003D1FFE70620019012E00A98B0F5804F85
:1042C00003D1FFE70720009007E00A990920B1F524
:1042D000803F08BF08200090FFE700980190FFE7AB
:1042E00001980290FFE702980390FFE7039804907B
:1042F000FFE704980590FFE705980690FFE706980A
:104300000790FFE707988DF827000B989DF8272066
:104310004BF6C231C0F60001895C084418300890A1
:104320009DF827104BF6CC30C0F60000415C082009
:1043300000FA01F208990868104308600CB0704751
:1043400080B586B005900491039201208DF80B0092
:1043500004980190012818D0FFE7019810281BD07D
:10436000FFE70198B0F5807F1DD0FFE70198B0F519
:10437000805F1FD0FFE70198B0F5803F21D0FFE7B5
:104380000198B0F5801F23D029E00598039900F02B
:10439000DBFE8DF80B0023E00598039900F05CFF2D
:1043A0008DF80B001CE00598039900F0E1FF8DF8F3
:1043B0000B0015E00598039901F064F88DF80B00E7
:1043C0000EE00598039901F0E9F88DF80B0007E07D
:1043D0000598039901F04CF98DF80B0000E0FFE718
:1043E0009DF80B0006B080BD82B00190009100984E
:1043F0000199486302B0704782B001900091009823
:104400000199886302B0704782B0019000910098D2
:104410000199C86302B0704782B001900091009882
:104420000199086402B0704782B001900091019830
:10443000806C00980199886402B0704782B0019046
:10444000009100980199C86402B0704782B0019051
:10445000009100980199C86202B0704782B0019043
:104460000091019880684BF6F871CFF6FE71084014
:10447000009908430199886002B0704782B00190AA
:10448000009100980199886202B0704782B0019053
:10449000009100980199086302B0704782B00190C2
:1044A0000091019840684FF68F71CFF6FF51084098
:1044B000009908430199486002B0704782B00190AA
:1044C00000910198406820F4700000990843019918
:1044D000486002B07047000083B002904EF21000B6
:1044E000CEF20000006801900198029800900098B8
:1044F000013020B1FFE7009801300090FFE7FFE7AF
:10450000009870B1FFE74EF21000CEF20000006894
:10451000C003002804D5FFE7009801380090FFE7AA
:10452000EEE703B07047000080B5A4B000200E9005
:1045300023902290219020901F901E901D901C90FF
:104540001B901A901990189017901690159014902F
:104550001390129011900220C0F21C00FFF700FB94
:104560004FF400500C90FEF75DFE01200790FEF71F
:1045700059FE07990E98119103210D9112911590F2
:104580004FF09040099011A90891FFF731F8089970
:104590000D9B0E9A09984FF0020CCDF82CC0CDF867
:1045A00044C012931592FFF723F808990D9B0E9AB9
:1045B00009984FF0040CCDF844C012931592FFF700
:1045C00017F80E990020C4F202000A900522FEF7A7
:1045D000BDFF0A980E9A1146FEF73EFF0A980E9A02
:1045E0001146FEF705FF0A980E992022FEF77EFF7E
:1045F0000A980E9A1146FEF791FF0A980E998022AA
:10460000FEF744FF0A980E994FF48072FEF7C2FF3E
:104610000A980E994FF48062FEF750FF0E98219091
:10462000229023904FF0A0400F9021A9FEF770FC3C
:10463000DDF82CC00C9B0D9A0E990F981B91CDF8AC
:1046400070C01D911E931F9220911BA9FEF79CFC28
:104650000E990F98FEF772FD0E990F98FEF78AFDDE
:104660000E984FF400211791189040F20030C5F2D7
:10467000000017A9FEF7C2FB0F98FEF71FFC0F986A
:10468000FEF736FC40F22400C2F200000068800908
:1046900042F66351C0F23E51A0FB0110800900EBCD
:1046A0008000800049F69A11C1F69911A0FB011013
:1046B0001090FFE7109820B1FFE710980138109094
:1046C000F8E74FF0A040049006210222C0F23042E9
:1046D0000192FEF7C7FC0199049800220392FEF7AD
:1046E000EDFC019904987F220692FEF703FD0498E1
:1046F0000C210422C0F660020292FEF7B3FC02997C
:10470000039A0498FEF7DAFC02990498069AFEF7D9
:10471000F1FC049812210822C0F690420592FEF79F
:10472000A1FC039A04980599FEF7C8FC0498059922
:10473000069AFEF7DFFC24B080BD000080B582B091
:104740000420FEF739FD0120FEF736FD05F09AFF43
:104750000022114600F020FC01460B20019005F0DC
:10476000B1FF019805F02EFF02B080BD80B582B088
:1047700041F25830C2F20000009046F20041C4F20B
:10478000000101600021019141608160C1600174FC
:104790004174817410224261012282610223C3614B
:1047A000036242628262C262026341638163C163E7
:1047B000FCF724FC18B1FFE7FCF75EFBFFE702B053
:1047C00080BD000080B590B0002007900F900E9043
:1047D0000D900C900B900A900420FEF711FD202004
:1047E000FEF70EFD01200690FEF70AFD0220FEF7FF
:1047F00007FD4FF09040009010210491FEF76EFFEE
:10480000049940F60000C4F600000190FEF766FF30
:1048100040F20040C4F6000009904FF4006102919C
:10482000FEF75CFF099808210391FEF757FF0499F2
:104830000998FEF753FF099840210591FEF74EFFB6
:104840000098049B069A07990A930B920C910D917C
:104850000E910AA90891FEF7CBFEDDF810C0069B69
:10486000079A08990198CDF828C00B930C920D92E5
:104870000E92FEF7BDFEDDF808C0069B079A089968
:104880000998CDF828C00B930C920D920E92FEF76A
:10489000AFFEDDF80CC0069B079A08990998CDF881
:1048A00028C00B930C920D920E92FEF7A1FEDDF83C
:1048B00010C0069B079A08990998CDF828C00B9359
:1048C0000C920D920E92FEF793FEDDF814C0069B3B
:1048D000079A08990998CDF828C00B930C920D926D
:1048E0000E92FEF785FE10B080BD000080B58AB044
:1048F000002003900990089007900690059004907E
:10490000FFF77CF94FF00040FEF7D4FC0220019045
:10491000FEF79AFC019903980422049205910690EF
:10492000079008900120099040F20040C4F6000072
:1049300004A9FEF75DFE039947F60040C4F20000AB
:104940000290FFF733F802980399FFF775F8029881
:104950000399FFF763F802980399FFF77BF8029831
:104960000399FFF731F80298FFF782F8029803994C
:10497000FFF738F802980399FFF742F80AB080BDB4
:1049800080B59AB010A807902821FBF7CBFC002037
:1049900008900F900E900D900C900B900A904FF491
:1049A0008050FEF7BDFC0120FEF760FC0898202136
:1049B00006910A91022101910B910C900D900E909D
:1049C000052002900F904FF0904004900AA90391A7
:1049D000FEF70EFEDDF804C0029A0399089B0498C6
:1049E0004FF0400ECDF828E0CDF82CC00C930D937D
:1049F0000E930F92FEF7FCFDDDF804C0029A0399B6
:104A0000089B04984FF0800ECDF828E0CDF82CC01C
:104A10000C930D930E930F92FEF7EAFD05F03AFE0C
:104A2000089A114600F0EEFA01462320059005F0A1
:104A30006BFE059805F0DEFD069A07990898109020
:104A40004FF4827311934FF4706312931390149088
:104A50004FF4007315931692179018900720199031
:104A600043F20000C4F201000990FFF705F908992C
:104A70000998FFF78DF90998FFF7F4F81AB080BD8F
:104A800080B596B00CA803902821FBF74BFC0020C2
:104A900004900B900A9009900890079006904FF4AC
:104AA0000040FEF719FC0420FEF7E0FB0220009016
:104AB000FEF7DCFB009904984FF4806206920791A0
:104AC000089009900A90062002900B9040F6000092
:104AD000C4F6000006A90191FEF78AFD009B01992A
:104AE000049A02984FF0200CCDF818C00793089252
:104AF00009920A920B9040F20040C4F60000FEF7C3
:104B000077FD039904984FF440420C924FF482725F
:104B10000D924FF440720E920F9010904FF400726D
:104B2000119210221292139014900720159043F6C0
:104B30000040C4F200000590FFF79EF80499059824
:104B4000FFF726F90598FFF78DF816B080BD000035
:104B500080B5B0B000200D902F902E902D902C900D
:104B60002B902A9029902890279026902590249089
:104B7000239017A806903021FBF7D4FB0D981690D0
:104B8000159014901390129011904FF40060FEF75E
:104B9000D9FB05F087FD0D9A114600F069FA014630
:104BA0001920019005F0D2FD019805F03BFD0D980C
:104BB000ADF8AC00602102912C9142F20F712D9161
:104BC0002E902F9042F60040C4F2010005902BA9D0
:104BD000FFF700FA0598FFF7BBF905980D99FFF765
:104BE0003DFC059801210991FFF730FB029B0598D8
:104BF00009990D9A2393249225922692279228921E
:104C000029922A9223AA0492FFF79AFB0999059800
:104C1000FFF7A2FA059810210391FFF717FB0399FC
:104C2000049A0598FFF78CFB03990598FFF794FA0F
:104C300005984FF480710B91FFF708FB049A0598D3
:104C40000B99FFF77DFB0B990598FFF785FA0598FF
:104C50000D99FFF723FC05980D99FFF72FFC059898
:104C6000FFF76CF9059806990D9A17921892199208
:104C70008DF86820ADF86A204FF4005307931B931A
:104C80001C921D921E924FF000731F93209221924E
:104C90002292FFF7A3F804200890FEF7F9FA022009
:104CA0000C90FEF7F5FA0998FEF7F2FA079B0898C0
:104CB0000C9A0D99119312921391149115911690CB
:104CC00040F60000C4F6000011A90F91FEF790FC19
:104CD000099B0C9A0F990D981193129213901490AE
:104CE000159006200E90169040F20040C4F6000089
:104CF0000A90FEF77DFCDDF830C00D9B0E9A0F99EF
:104D00000A98CDF844C0CDF848C013931493159376
:104D10001692FEF76DFCDDF82CC00C9B0D9A0F99D6
:104D20000E98CDF844C012931392149215921690D7
:104D30004FF090401090FEF75BFCDDF830C00D9B0B
:104D40000E9A0F9910984FF4007ECDF844E0CDF8FC
:104D500048C01393149315931692FEF749FCDDF89F
:104D600030C00D9B0E9A0F9910984FF4806ECDF8BD
:104D700044E0CDF848C01393149315931692FEF7B0
:104D800037FC30B080BD000080B588B000200190B5
:104D9000079006900590049003900220FEF7AEFA6B
:104DA00005F080FC019A114600F062F901461D20D1
:104DB000009005F0CBFC009805F034FC0198A92187
:104DC000ADF80C1004904FF496610591069040F2F6
:104DD0000040C4F20000029003A9FFF7FBF802981C
:104DE000FFF7A2F801990298FFF738FB01990298A2
:104DF000FFF754FB0298FFF7A1F808B080BD000050
:104E000080B5A6B000200590259024902390229094
:104E1000219020901F901E901D901C901B901A9026
:104E200019900DA804903021FBF77CFA05980C909E
:104E30000B900A900990089007904FF40050029050
:104E4000FEF780FA0598ADF88400229040F2A46144
:104E500023912490259043F20040C4F20100039076
:104E600021A9FFF7B7F80398FFF75EF803980599B3
:104E7000FFF7F4FA039801210191FFF7E7F901998F
:104E80000398059A602319931A921B921C921D9203
:104E90001E921F92209219AAFFF752FA01990398C5
:104EA000FFF75AF903980599FFF7F8FA039805995F
:104EB000FFF704FB0398FFF741F8029B039804995E
:104EC000059A0D920E920F928DF84020ADF8422077
:104ED00011931292139214924FF00073159316923D
:104EE00017921892FEF77AFF04200690FEF7D0F989
:104EF00005990698402207920222089209910A9188
:104F00000B910C9040F60000C4F6000007A9FEF7D4
:104F10006FFB26B080BD000080B541F28800C2F270
:104F2000000040F20001C2F20001002202F0FAFD8E
:104F300018B1FFE7FBF7A0FFFFE741F28800C2F2DC
:104F4000000040F22801C2F2000103F0EFF918B1AD
:104F5000FFE7FBF791FFFFE741F28800C2F2000094
:104F600040F24C11C2F2000102F06CF918B1FFE7F7
:104F7000FBF782FFFFE741F28800C2F2000003F076
:104F800039FB18B1FFE7FBF777FFFFE780BD0000B3
:104F9000FFE7FEE7FFE7FEE788B00790069105927E
:104FA000079800F0070004900498C0F10700052856
:104FB00003D3FFE70420019004E00498C0F1070048
:104FC0000190FFE70198039004980430062803D865
:104FD000FFE70020009003E0049803380090FFE70B
:104FE0000098029006980399012202FA01F1013912
:104FF0000840029B984005999A40013A11400843A5
:1050000008B0704788B0079006910592079800F0A5
:10501000070004900498C0F10700052803D3FFE7B8
:105020000420019004E00498C0F107000190FFE71C
:105030000198039004980430062803D8FFE7002065
:10504000009003E0049803380090FFE70098029076
:1050500006980399012202FA01F101390840029BE6
:10506000984005999A40013A1140084308B07047AA
:1050700088B0079006910592079800F00700049009
:105080000498C0F10700052803D3FFE7042001902E
:1050900004E00498C0F107000190FFE70198039035
:1050A00004980430062803D8FFE70020009003E0AE
:1050B000049803380090FFE700980290069803993F
:1050C000012202FA01F101390840029B984005993A
:1050D0009A40013A1140084308B0704788B00790E1
:1050E00006910592079800F0070004900498C0F11B
:1050F0000700052803D3FFE70420019004E004988B
:10510000C0F107000190FFE7019803900498043074
:10511000062803D8FFE70020009003E00498033836
:105120000090FFE70098029006980399012202FA86
:1051300001F101390840029B984005999A40013AD3
:105140001140084308B0704780B586B005900491BF
:105150000599086A20F0010008620598006A02902B
:10516000059840680190059880690390039820F0A5
:105170000300039003984FF68F71CFF6FE7108403D
:105180000499096808430390029820F002000499EA
:10519000096908430290029820F0010004994968C7
:1051A00008430290059842F60041C4F2010188428A
:1051B00020D0FFE7059843F20041C4F20101884284
:1051C00018D0FFE7059844F20001C4F201018842BB
:1051D00010D0FFE7059844F20041C4F20101884273
:1051E00008D0FFE7059844F60001C4F201018842A7
:1051F00020D1FFE7029820F008000499496940EAAD
:1052000081000290029820F004000499896840EA25
:1052100081000290019820F4807004998969084304
:105220000190019820F400700499C96940EA410096
:105230000190FFE7019805994860039805998861F6
:1052400005980499C968FFF7CFF802980599086294
:10525000002006B080BD000080B586B005900491A6
:105260000599086A20F0100008620598006A02900B
:10527000059840680190059880690390039820F490
:1052800040700390039848F6FF71CFF6FF61084025
:105290000499096840EA01200390029820F0200058
:1052A0000499096940EA01100290029820F0100068
:1052B0000499496840EA01100290059842F60041BD
:1052C000C4F20101884220D0FFE7059843F2004173
:1052D000C4F20101884218D0FFE7059844F20001AA
:1052E000C4F20101884210D0FFE7059844F2004162
:1052F000C4F20101884208D0FFE7059844F6000196
:10530000C4F20101884221D1FFE7029820F0800019
:105310000499496940EA81100290029820F0400007
:105320000499896840EA81100290019820F4806015
:105330000499896940EA81000190019820F4006095
:105340000499C96940EAC1000190FFE701980599F5
:10535000486003980599886105980499C968FFF722
:105360004BF8029805990862002006B080BD000045
:1053700080B586B0059004910599086A20F4807084
:1053800008620598006A02900598406801900598A7
:10539000C0690390039820F00300039003984FF630
:1053A0008F71CFF6FE710840049909680843039095
:1053B000029820F400700499096940EA01200290E3
:1053C000029820F480700499496840EA0120029014
:1053D000059842F60041C4F20101884220D0FFE75F
:1053E000059843F20041C4F20101884218D0FFE75A
:1053F000059844F20001C4F20101884210D0FFE791
:10540000059844F20041C4F20101884208D0FFE748
:10541000059844F60001C4F20101884221D1FFE75A
:10542000029820F400600499496940EA81200290C2
:10543000029820F480600499896840EA81200290F3
:10544000019820F480500499896940EA0110019084
:10545000019820F400500499C96940EA4110019074
:10546000FFE701980599486003980599C861059878
:105470000499C968FEF7C8FF0298059908620020E0
:1054800006B080BD80B586B0059004910599086A84
:1054900020F4805008620598006A029005984068E0
:1054A00001900598C0690390039820F44070039020
:1054B000039848F6FF71CFF6FF6108400499096828
:1054C00040EA01200390029820F4005004990969F1
:1054D00040EA01300290029820F480500499496813
:1054E00040EA01300290059842F60041C4F2010101
:1054F000884220D0FFE7059843F20041C4F2010141
:10550000884218D0FFE7059844F20001C4F2010177
:10551000884210D0FFE7059844F20041C4F201012F
:10552000884208D0FFE7059844F60001C4F2010163
:10553000884221D1FFE7029820F40040049949698C
:1055400040EA81300290029820F4804004998968F2
:1055500040EA81300290019820F4804004998969E2
:1055600040EA81100190019820F400400499C96933
:1055700040EAC1100190FFE701980599486003983F
:105580000599C86105980499C968FEF745FF029816
:1055900005990862002006B080BD000080B584B087
:1055A000039002910399086A20F4803008620398FE
:1055B000006A00900398006D019001984FF68F717A
:1055C000CFF6FE71084002990968084301900098DF
:1055D00020F400300299096940EA014000900098E7
:1055E00020F480300299496840EA01400090039815
:1055F00042F60041C4F20101884220D0FFE703983F
:1056000043F20041C4F20101884218D0FFE7039839
:1056100044F20001C4F20101884210D0FFE7039870
:1056200044F20041C4F20101884208D0FFE7039828
:1056300044F60001C4F2010188420BD1FFE7039850
:10564000406820F480300299896940EA012003997A
:105650004860FFE701980399086503980299C968B3
:10566000FEF7E2FE009803990862002004B080BDB6
:1056700080B584B0039002910399086A20F48010E9
:1056800008620398006A00900398006D01900198E9
:1056900048F6FF71CFF6FF6108400299096840EAB9
:1056A00001200190009820F400100299096940EA55
:1056B00001500090009820F480100299496840EA57
:1056C00001500090039842F60041C4F20101884263
:1056D00020D0FFE7039843F20041C4F20101884261
:1056E00018D0FFE7039844F20001C4F20101884298
:1056F00010D0FFE7039844F20041C4F20101884250
:1057000008D0FFE7039844F60001C4F20101884283
:105710000BD1FFE70398406820F480200299896943
:1057200040EA812003994860FFE7019803990865E2
:1057300003980299C968FEF781FE009803990862F0
:10574000002004B080BD000080B596B01590FFE742
:1057500015980068B0F844000004002840F1648304
:10576000FFE715980068B0F84400ADF84C00BDF8AC
:105770004C0000F00F008DF847009DF8470000280E
:1057800040F04781FFE7BDF84C00C006002845D433
:10579000FFE7FFE715980068008848F60F7108409A
:1057A000ADF84400BDF8440040F400401599096884
:1057B0000880FFE715982830149015980068B0F815
:1057C000500014990A7800EBC200159A1268104430
:1057D000B0F802046FF39F20C86114994869CA6940
:1057E0001044486115980021FCF7C6F8159890F808
:1057F000240090B1FFE71498806970B9FFE715980D
:1058000090F8240040F0800015990968A1F84C0038
:105810001599002081F82400FFE7F9E0159800F5BC
:10582000B4701490159800680088ADF84A00BDF86F
:105830004A00000500282ED5FFE715980068B0F84B
:10584000500014990A7800EBC200159A12681044AF
:10585000B0F806046FF39F20C8611599086801F538
:105860002C71149BDA889B8B04F01EFEFFE71598C1
:105870000068008840F68F710840ADF84200BDF81E
:10588000420040F08000159909680880FFE71598EC
:10589000FDF7CEF9BBE0BDF84A000004002840F156
:1058A000B580FFE7FFE715980068008840F68F7124
:1058B0000840ADF84000BDF8400040F08000159968
:1058C00009680880FFE715980068B0F8500014993F
:1058D0000A7800EBC200159A12681044B0F806046A
:1058E0006FF39F20C8611498C069B0B1FFE71498A6
:1058F000406990B1FFE715980068149B5969DA88F0
:105900009B8B04F0D1FD14994869CA691044486121
:1059100015980021FCF744F8FFE715980068008807
:105920000005002871D4FFE7FFE7159800680F9085
:1059300015980068B0F850100F9808440F900F9811
:1059400000F206400E90FFE7149800693F2817D335
:10595000FFE7FFE71498006940090D901498007C58
:10596000C00620B9FFE70D9801380D90FFE70D99AB
:105970004FF4004040EA81200E990880FFE723E0C1
:105980001498006958B9FFE70E99088820F4F84088
:1059900008800E99088840F40040088013E0FFE773
:1059A0001498006940080D901498007CC00720B13D
:1059B000FFE70D9801300D90FFE70D9880020E99DA
:1059C0000880FFE7FFE7FFE7FFE7FFE7FFE715983E
:1059D000006800884BF68F710840ADF83200BDF8C2
:1059E000320080F48050ADF83200BDF8320080F40F
:1059F0000050ADF83200BDF8320048F28001084393
:105A0000159909680880FFE7FFE7FFE7FFE7FFE771
:105A100008E2159800689DF8471030F82100ADF8AD
:105A20004A00BDF84A000004002840F1DE80FFE78C
:105A3000FFE7159800689DF8471030F8210040F600
:105A40008F710840ADF83000BDF8300040F08000A4
:105A5000159909689DF8472021F82200FFE715985D
:105A60009DF8471001EB810100EBC10000F5B47017
:105A700014901498007B00BBFFE715980068B0F8FD
:105A800050001499097800EBC10015990968084481
:105A9000B0F806046FF39F20ADF84E00BDF84E003D
:105AA00050B1FFE715980068149A5169D288BDF883
:105AB0004E3004F0F9FCFFE773E01498C078022838
:105AC00009D1FFE715981499BDF84A20FCF734F87E
:105AD000ADF84E0064E0FFE7FFE715980068149901
