:020000040800F2
:10000000B81C002065030008716800080D42000854
:100010006D68000871170008C9C0000800000000E2
:10002000000000000000000000000000AD790008A2
:100030000523000800000000D57800081D84000892
:100040007F0300087F0300087F0300087F03000888
:100050007F0300087F0300087F0300087F03000878
:100060007F0300087F0300087F03000801230008C6
:100070007F0300087F0300087F0300087F03000858
:100080007F030008000000007F0300087F030008D2
:100090008DBF00087F0300087F0300087F0300086E
:1000A0007F030008098500087F0300087F0300081C
:1000B0007F0300083D8500087F0300087F030008D8
:1000C0007F0300087F0300087F0300087F03000808
:1000D0007F0300087F0300087F0300087F030008F8
:1000E0007F0300087F0300087F0300087F030008E8
:1000F0007F0300087F0300087F0300080000000062
:10010000000000007F030008000000007F030008DB
:100110007F030008000000007F0300087F03000841
:100120007F0300087F0300087F0300087F030008A7
:100130007F03000800000000000000007F030008AB
:100140007F0300087F03000800000000000000009B
:10015000000000000000000000000000000000009F
:100160000000000000000000000000007F03000805
:100170007F030008000000000000000000000000F5
:10018000000000007F0300080000000000000000E5
:10019000000000000000000000000000000000005F
:1001A00000000000000000007F0300087F0300083B
:1001B0007F0300087F0300087F03000800000000A1
:1001C000000000007F0300080000000000000000A5
:1001D0007F0300087F03000800F002F800F0B2F887
:1001E0000AA090E8000C82448344AAF10107DA4592
:1001F00001D100F0A7F8AFF2090EBAE80F0013F032
:10020000010F18BFFB1A43F001031847F4DC00008C
:1002100014DD00000A444FF0000C10F8013B13F00D
:10022000070408BF10F8014B1D1108BF10F8015B4F
:10023000641E05D010F8016B641E01F8016BF9D142
:1002400013F0080F1EBF10F8014BAD1C0C1B09D199
:100250006D1E58BF01F801CBFAD505E014F8016B0B
:1002600001F8016B6D1EF9D59142D6D3704700009D
:100270000023002400250026103A28BF78C1FBD8AF
:10028000520728BF30C148BF0B6070476E2900F08D
:100290006F81702900F0B38266290DF0728565299F
:1002A0000DF06F8567290DF06C8561290DF06B8568
:1002B00003681B0A28BF41F08001692900F01C81F6
:1002C000642900F01981752900F016816F2900F06A
:1002D0004182782900F07F82E92900F0DB81E4295E
:1002E00000F0D881F52900F0D581EF2900F03E8299
:1002F000F82900F07E820368DB0928BF41F0800105
:10030000632900F07F87732900F08487E32900F0D8
:100310008F87F32900F09487002070471FB50DF0F8
:100320001EFD00F0E7FF0400002000210CF040FF5C
:10033000401C6060002000210CF024FFE0601FBD25
:1003400010B510BD00F0A8FF1146FFF7E7FF0CF055
:100350008DFA01F085F803B4FFF7F2FF03BC01F05A
:10036000C9F800000948804709480047FEE7FEE752
:10037000FEE7FEE7FEE7FEE7FEE7FEE7FEE7FEE755
:1003800004480549054A064B70470000F5840008FB
:10039000D9010008B8160020B81C0020B8180020A9
:1003A000B81800207CB51D4616460C00009007D0FA
:1003B0004142A14202D32044401E01E04FF0FF30F1
:1003C000064B7B442A4669460190304600F0E9F826
:1003D000002C02D0009A002111707CBD03020000A5
:1003E0004FF0000200B5134694469646203922BFCE
:1003F000A0E80C50A0E80C50B1F12001BFF4F7AF19
:10040000090728BFA0E80C5048BF0CC05DF804EBFA
:10041000890028BF40F8042B08BF704748BF20F868
:10042000022B11F0804F18BF00F8012B7047704766
:100430007047704770B5044685690068C10601D5EC
:10044000302600E02026C00707D070BDD4E9012186
:1004500030469047206A401C20626D1EF6D570BD64
:1004600070B5044685690078C00707D170BDD4E92E
:10047000012120209047206A401C20626D1EF6D585
:1004800070BD09684A0501D540B27047C905FCD561
:1004900000B2704709684A0501D5C0B27047C90566
:1004A000FCD580B2704770B50C460546012A05D0D0
:1004B0002878800600D5EA69002302E0012305E0E0
:1004C0005B1C934202D2E05C0028F9D1A869E618CF
:1004D000C01AA861286A184428622846FFF7AAFFB4
:1004E00004E0D5E9012114F8010B9047B442F8D398
:1004F0002846FFF7B5FF70BD2DE9F0410646002400
:1005000010687529314616A510D0FFF7BAFF0028EC
:1005100002DA404213A507E031688A0701D512A527
:1005200002E0490704D511A5012401E0FFF7B2FF5D
:1005300000210A2206F1240709E0B0FBF2FCB0FB1F
:10054000F2F302FB1C00303078541846491C002896
:10055000F3D123462A463046BDE8F04100F063BAA5
:10056000000000002D0000002B0000002000000013
:1005700011680268006A530501D508700AE0D305C6
:1005800001D5088006E0130603D5C217C1E90002B1
:1005900000E008600120704701694A1C0261087888
:1005A000704700B58FB0CDE90131002105910549B3
:1005B0007944CDE903101146684600F02BF90FB0DD
:1005C00000BD0000E5FFFFFFD1E900239A4202D2FF
:1005D000531C0B60107070472DE9FF5F15468A466B
:1005E0000446DFF8AC80F8440027D8E900103E4606
:1005F000CDE9001010E03AF816106A4602A800F0A3
:1006000023FE411C07D02178890603D5E2693918F9
:1006100091420DD80744761C2078800602D5E06907
:10062000B84205DDAE42E6DB3AF816000028E2D11A
:10063000A069C01BA0612046FFF7FCFED8E90010AE
:10064000CDE90010002017E03AF818106A4602A819
:1006500000F0FAFDB0F1FF3F81460BD000250DF10F
:10066000080B05E0D4E901211BF8050090476D1C3B
:100670004D45F7D308F10100B0428046E4DB206A23
:10068000384420622046FFF7EBFEBDE8FF9F0000E4
:10069000A2D700002DE9F0418046D21D22F00702CA
:1006A0000025D2E90002F52915A614D0011E72F129
:1006B000000106DA0023D0EB030063EB020211A66F
:1006C00008E0D8F800108B0701D50FA602E0490713
:1006D00001D50EA601251146002408F1240704E0E7
:1006E00000F05CF930323A55641C50EA0102F7D14F
:1006F0002B46324621464046BDE8F04100F093B912
:10070000000000002D0000002B0000002000000071
:1007100030B4002100F1240408E002F00705D208FB
:10072000303542EA4372DB086554491C52EA03053E
:10073000F3D10468002310A2250708D504F0200493
:100740000C4304D0C46901230CA2641EC46130BCF4
:1007500000F069B910B5044621461068FFF79AFE0B
:1007600002462046BDE810400023D1E7D21D22F00A
:100770000701D1E90023CBE70000000030000000B2
:10078000F0B40D460188090502D5214C7C4402E0F5
:100790001F4C7C440E34002100F1240608E002F0D6
:1007A0000F071209E75D42EA03721B097754491CDF
:1007B00052EA0307F3D102780023120704D5702D03
:1007C00006D009B1022311342246F0BC00F02BB947
:1007D00001231034F8E770B504460D462146106831
:1007E000FFF758FE024629462046BDE87040002328
:1007F000C6E7D21D22F00703D3E90023C0E7036850
:10080000126843F0200303600823C3610023B7E7A5
:1008100004D600002DE9F05F894604464FF0000A37
:10082000DFF874B1FB44C0F820A02046E168884797
:10083000002874D0252806D0D4E901219047206AE9
:10084000401C2062F1E700265F462046E1688847A9
:100850002028054607DB312D05D2781910F8200C29
:1008600008B10643F1E7B00701D526F00406C4F845
:100870001CA00027C4F818A02A2D09D028460CF087
:1008800079FC38B304EB8708303DC8F8185019E0FC
:1008900059F8041B204604EB87029161E168884700
:1008A000012F054618D1E069002820DA26F020063D
:1008B0001DE0D8F8180000EB800005EB4000303850
:1008C000C8F818002046E168884705460CF052FC3D
:1008D0000028EED1012F0AD02E2D08D12046E16844
:1008E00088477F1C0546022F46F02006C4DBA0691E
:1008F000002803DA404246F00106A061F00701D06B
:1009000026F010066C2D0BD0682D09D04C2D39D057
:100910006A2D35D0742D35D07A2D33D016E038E0DD
:10092000E1682F4620468847B842054609D16C2F1A
:1009300026D04FF48060E16806432046884705468C
:1009400004E06C2F1AD04FF4807006430DB3A5F16C
:100950004100192802D8203546F400664A46294647
:10096000204626604E46FFF791FC80B101280BD04F
:10097000F61D26F0070000F1080956E74020E4E7DD
:100980008020D8E70020D6E706F104094DE7284685
:1009900052E7206ABDE8F09F94D5000030B5B0F171
:1009A0000A0271F100034FEA900E4EEA817EB0EB2D
:1009B0000E0061EB91014FEA101E4EEA017E10EB32
:1009C0000E0041EB11114FEA102E4EEA016E10EBB2
:1009D0000E0041EB11214FEA104E4EEA014E10EB92
:1009E0000E0041EB1141401841F100014FEAD000E7
:1009F00040EA41704FEAD1014FEA810444EA907421
:100A000010EB800544EB01046D1944EB0404521B08
:100A1000A3414FF0000348BF0A3200D530BD401C4F
:100A200041F1000130BD2DE9F0470D46994692464F
:100A3000044600F124080168880604D5E06921F025
:100A40001001216000E00120A84201DD471B00E009
:100A50000027A1697A1902EB0900081AA061207821
:100A6000C00602D42046FFF7E5FC002608E0D4E9E2
:100A700001211AF806009047206A401C761C20626B
:100A80004E45F4DB2078C0060AD52046FFF7D2FC9D
:100A900006E0D4E9012130209047206A401C206202
:100AA000381EA7F10107F4DC07E0D4E9012118F8AA
:100AB00005009047206A401C2062281EA5F1010510
:100AC000F3DC2046FFF7CCFC2078000602D502209C
:100AD000BDE8F0870120FBE72DE9FF4F0C461E46DD
:100AE0004FF0FF378BB0D2E90001DDF860800A904B
:100AF0008A46C1F30A5505B93D46002108464FF024
:100B00000000BAF1000F00F4400005DA00EB8000AD
:100B10004FF4400101EA50004FEA9059B9F1010F3A
:100B200000DDB9460A9850EA4A000ED044F610504B
:100B3000A5F2FF3545432F14B8F1000F1ED07542C2
:100B4000291E1EDDC9F100021CE0B8F1010F4FF0B3
:100B5000000001D0302103E0F24305E02154401CA5
:100B6000B042FBDB30460022002121540B99C1F832
:100B70000880C1E900200FB0BDE8F08FBD1B6D1CDF
:100B8000DEE74A4600DA694206A800F0F7FB06AB4A
:100B900093E8070003AB83E8070050460A990BF07F
:100BA00008FF8DE80700A0F500501F38009003985B
:100BB000002D0ADD42F21F014A460844002303A922
:100BC000039068460CF072F909E0A0F500504A461F
:100BD0001F38002303A9039068460CF07CF98DE8C8
:100BE00007000004000C03D04FF0FF30410800E084
:100BF0001046B8F1000F03D00022009215461EE007
:100C0000751E05D4FFF7CAFE303262556D1EF9D548
:100C1000B3460122084302D000227F1C04E0207862
:100C2000302801D100227F1E002A099784D01DE0C0
:100C3000112D07DAFFF7B2FE303262556D1C50EA13
:100C40000102F5D1084302D00098C8B10EE000219E
:100C5000681E05E0235C625C63542254401E491CFC
:100C60008142F7DBAB46A81B401E0990002004F828
:100C70000B000B98099AC0F80880C0E9002B7AE7AE
:100C800011264FF0000857E72DE9F04F884604463B
:100C9000D21D22F0070191B0D1E90001CDE90A018E
:100CA0000CF050FA02460B98C00F01D02D2007E03F
:100CB0002068810701D52B2002E0202101EAC00035
:100CC000032A099001D0072A05DB03464146204646
:100CD00000F014FB0BE12078800601D5E06900E00C
:100CE0000620B8F1650F814606D0B8F1660F18D01E
:100CF000B8F1670F70D131E00020B9F1110F009009
:100D000001DB112301E009F101030AAA01A90CA8E2
:100D1000FFF7E2FEDDE90C70002609F101058346CC
:100D200047E001204B4600904FF000470AAA01A976
:100D30000CA8FFF7D1FEDDE90DB00C995D46002649
:100D400010B909F101000D18B9EB050003D4C0F189
:100D5000FF3609F10105A5EB09002BE0B9F1010F00
:100D600001DA4FF001090020B9F1110F0090484657
:100D700001DD112300E003460AAA01A90CA8FFF730
:100D8000ABFEDDE90C704D46002683462078000757
:100D90000AD4AB4500DA5D4601A8012D04DD4119F6
:100DA00011F8011C302907D04F4502DA17F1040F62
:100DB00004DA012082460FE06D1EEEE7002F02DC10
:100DC000ED1B3E4403E0781CA84200DD7D1CB81BEF
:100DD00000F1010A4FF000472078000703D4AA452C
:100DE00001DB4FF0FF3A0021B7F1004F0DF143084E
:100DF0008DF8431024D002202B23002F01DA7F42EC
:100E00002D230A21021EA0F1010000DC5FB197FB37
:100E1000F1FC97FBF1F201FB1C7C17460CF1300C46
:100E200008F801CDEEE7A8F101000370218809055B
:100E300001D5452100E06521A0F1010800F8011C61
:100E400009980FA9A1EB0807FF1D00B10120411966
:100E500001EBEA70A1693844081A401EA0612078AD
:100E6000C00602D42046FFF7E5FA099828B1D4E974
:100E700001219047206A401C20622078C00622D5BC
:100E80002046FFF7D7FA1EE0002E04DBB34502DD53
:100E900001A8805D00E03020D4E901219047206A5C
:100EA000401C2062761CAAF101005FEA000A0AD108
:100EB00000F020FAC0680168405CD4E90121904745
:100EC000206A401C2062281EA5F10105DCDC07E039
:100ED000D4E9012118F8010B9047206A401C2062D8
:100EE000381EA7F10107F3DC2046FFF7B9FA03200B
:100EF00011B041E62DE9F04F04460D46D21D22F017
:100F0000070089B0D0E90097484639460CF01AF935
:100F10000246F80F01D02D2307E02068810701D594
:100F20002B2302E0202101EAC0038DF820300BB111
:100F3000012000E00020032A824601D0072A04DBBA
:100F40002946204600F0DAF93FE12078800601D4F6
:100F50000D2500E0E569C7F30A560D2D49DA002199
:100F60004FEA175B08464FF00000002F00F44000E6
:100F700007DA00EB80004FF4400100EBD07001EA8B
:100F800060008115012901DD4FF0FF3100224FEA99
:100F9000850CBCF1180F06D31346ACF118004FF0C6
:100FA0008052C24003E04FF4801323FA0CF30CF19B
:100FB0000C0CBCF1200F04D3ACF1200C09FA0CF09E
:100FC00001E007FA0CF000294FF0004801DD18B9E4
:100FD0000FE00ED140450CD319EB02095F4121B956
:100FE000404502D19F4329EA0209BBEB175F00D0BD
:100FF000761C2088000502D57B48784402E07A48B8
:101000007844193808AA302302F80A30037C0AF120
:101010000101002E0AF1020A53546A4602DC4FF025
:10102000300101E04FF031014FF001088DF8001060
:1010300002D0A6F2FF3603E059EA470100D06B4E1A
:10104000002D02DC2178090704D54FF002082E217B
:101050008DF80110C44600210BE0C7F303433F01A4
:10106000C35C491C6D1E02F80830052908F101080F
:1010700001DA002DF1DC00210CE000EB1973491CB2
:101080001B786D1E082902F808304FEA091908F18B
:10109000010801DA002DF0DC21688B0602D516E08C
:1010A000A8F10108E04505DD02EB080313F8013C57
:1010B000302BF5D0B8F1000F09DD02EB080313F86F
:1010C000013C2E2B03D1090701D4A8F10108002D02
:1010D00005DD3E2102F808106D1E08F10108407C74
:1010E000002E02F8080008F1010804DA2D207642EB
:1010F00002F8080002E02B2002F808000A214FF451
:101100007A70864208F101080BDB96FBF0F330336E
:1011100002F8083096FBF0F308F1010800FB1366B3
:1011200001E0642E0CDB642096FBF0F3303302F810
:10113000083096FBF0F308F1010800FB136601E0AC
:101140000A2E06DB96FBF1F0303002F8080008F1B9
:10115000010896FBF1F001FB1060303002F8080046
:10116000A16908F1010808EB050202EB0A00081A60
:10117000A0612078C00602D42046FFF75BF9216AFF
:1011800008AE01EB0A00206204E0D4E9012116F860
:10119000010B9047BAF1010AF7D22078C00602D5B8
:1011A0002046FFF747F96E4609E016F8010B3E2886
:1011B0000FD0D4E901219047206A401C2062B8F189
:1011C0000108F2D22046FFF74BF909B00320BDE831
:1011D000F08F206A2844206203E0D4E90121302006
:1011E00090476D1EEBD3F8E7E2CD000002FCFFFF55
:1011F00010B5436913B1AFF3008001E0FFF753F975
:10120000012010BD127800F124010A7000224A70FA
:101210000122EDE711684FF0FF32E9E710B54369AD
:1012200013B1AFF3008001E0FFF7D6F9012010BD44
:10123000128800F1240182840022C2840122EDE799
:1012400011684FF0FF32E9E72DE9F04116460C46F0
:10125000054600F047F8036893F80101012807D01C
:10126000FF2C12D8185D80B101202C70BDE8F081F0
:10127000D3F807013246214603F20713C718284660
:10128000BC46BDE8F041002360474FF0FF30EDE77A
:1012900000487047200300207546FFF7F9FFAE466F
:1012A00005006946534620F00700854618B020B572
:1012B000FFF766F8BDE820404FF000064FF000074A
:1012C0004FF000084FF0000BAC46ACE8C009ACE8AA
:1012D000C009ACE8C009ACE8C00921F007018D469F
:1012E0007047000010B500F005F8001D10BD00BFEC
:1012F000C1BE000000487047400300202DE9F041C6
:101300001F46044603260168072A01F4006004DB37
:1013100008B116A505E016A503E008B115A500E083
:1013200015A521F010002060A069C01EA0610FB1BA
:10133000401EA0612046FFF77DF84FB1D4E901219E
:1013400038469047206A401C2062C01C206206E09C
:10135000206AFAE7D4E9012115F8010B9047761EBF
:10136000F8D22046FFF77CF8BDE8F0814E414E00F0
:101370006E616E00494E4600696E66002DE9F047C9
:10138000814616468AB0354878440DC88DE80D0070
:1013900032487844801C03AC0DC884E80D0041F647
:1013A0009B300844372190FBF1F290FBF1F5A5F159
:1013B000800501FB12041B3C02D56442012000E0C1
:1013C0000020DFF898A080460027FA44AAF1BE0A60
:1013D0000EE0E0070AD03246684607EB47010123DA
:1013E0000AEB81010BF077FD8DE8070064107F1C8C
:1013F000002CEED1194F7F44AE3F19E0E80715D01D
:1014000007EB04100DF1180A90E80E008AE80E00B0
:10141000C068F04201D1981908903246012306A90C
:1014200003A80BF058FD03AB83E807006D10641CA4
:10143000002DE3D14FF0010332466946B8F1000FA9
:1014400003A802D00BF032FD01E00BF044FDC9E926
:101450000001C9F808200AB0BDE8F087E4CA00001E
:1014600010B50446AFF300802046BDE81040FEF7FB
:1014700072BF00000000000030B44FF0013C50F893
:10148000042B51F8043BCCFA52F4D51A20D1FCB904
:1014900050F8042B51F8043BCCFA52F4D51A17D16A
:1014A000B4B950F8042B51F8043BCCFA52F4D51AD5
:1014B0000ED16CB950F8042B51F8043BCCFA52F41D
:1014C000D51A05D1002CDAD030BC4FF0000070479F
:1014D00029BAB1FA81F111F01801D1F1200084404C
:1014E000F2D1CA40CB4012F0FF0213F0FF0330BC30
:1014F000D01A704701491820ABBEFEE72600020053
:101500007047000080B582B00020ADF80600009062
:101510000E2000F009F90146BDF8060040EA01205E
:10152000ADF8060002F074FE0D2000F0FDF8014653
:10153000BDF806000843ADF80600BDF8060002B08D
:1015400080BD00000000000080B586B0FFF7DAFF24
:1015500041F22001C2F2000102918880B1F900003D
:10156000B1F90210401A0CF0E4F841EC100B51EC08
:10157000100B9FED670B52EC103BD20F039262F3FE
:10158000DF7141EC100B51EC100B0CF0A3F8029939
:10159000ADF81600B1F90000B1F90410401A0CF0D2
:1015A000C8F8039A41EC100B51EC100B62F3DF7199
:1015B00041EC100B51EC100B0CF08CF80299ADF8CB
:1015C0001400B1F90200B1F90410401A0CF0B1F89E
:1015D000039A41EC100B51EC100B62F3DF7141ECFC
:1015E000100B51EC100B0CF075F8ADF81200BDF8B3
:1015F0001200BDF81610401A0CF09BF8039A41EC4B
:10160000100B51EC100B62F3DF7141EC100B51EC3D
:10161000100B9FED410B53EC102B0CF053FBF8B962
:10162000FFE7BDF81200BDF81610401A0CF081F863
:1016300041EC100B51EC100B9FED350B52EC103BB5
:10164000D20F62F3DF7141EC100B51EC100B9FEDE8
:10165000340B53EC102B0CF02EFB002844D1FFE789
:10166000BDF81600BDF81410411A0020962901900B
:1016700021DBFFE7BDF81400BDF81610401A0CF08E
:1016800058F841EC100B51EC100B9FED210B52EC74
:10169000103BD20F62F3DF7141EC100B51EC100BD9
:1016A0009FED1F0B53EC102B0CF005FB002818BF0F
:1016B00001200190FFE7019800F001000CF039F8DB
:1016C00041EC100B9FED121B53EC112B4FEAD37C16
:1016D00051EC100B6CF3DF7141EC100B51EC100B63
:1016E0000CF0CDFA38B9FFE741F22001C2F2000157
:1016F00048888880FFE741F22000C2F2000041885C
:10170000018081884180808806B080BD00BF00BF15
:1017100000000000000000000000000000C0624067
:10172000000000000070A74080B582B08DF807006F
:1017300002F01EFE6C2002F0D3FE02F03DFE9DF88A
:10174000070002F0CDFE02F037FE02F011FE6D2020
:1017500002F0C6FE02F030FE02F006FE8DF8060032
:1017600002F07CFD02F0A0FD9DF8060002B080BDF5
:10177000FFE7FEE784B08DF80F000291ADF8062078
:101780009DF80F000146009123281DD80099DFE83D
:1017900001F012131415161B1B1B1B1B1B1B1B1B01
:1017A0001B1B1B1B1B1B1B1B1B1B1B1B1B1B1B1B89
:1017B0001B1B1718191A08E007E006E005E004E013
:1017C00003E002E001E000E0FFE7002004B0704722
:1017D0000020704780B582B041F28C00C2F2000058
:1017E000009040F62041C2F200010022019207F071
:1017F00095FA009840F62001C2F2000107F074FA51
:10180000019802B080BD000080B584B003900291C1
:10181000039941F28C00C2F20000019007F064FAD3
:10182000019807F00BFA002004B080BD83B002904D
:1018300001918DF8032000208DF802009DF902002F
:1018400003B0704780B586B00490ADF80E1000204C
:101850008DF80D0041F28C00C2F20000D0F8BC02FD
:1018600002900298D0F8140220B1FFE701208DF811
:10187000170013E00499BDF80E2041F28C00C2F26B
:101880000000019007F04AFA019807F035FB8DF847
:101890000D009DF80D008DF81700FFE79DF817006B
:1018A00006B080BD0000000080B584B003900398AE
:1018B000019090ED010A90ED023A90ED031AB0EE1E
:1018C000002A83EE023A30EE430A81EE021A30EE2D
:1018D000410A10EE100A0CF0A7F941EC100B51EC84
:1018E000100B9FED170B53EC102B0BF0B1FF41ECDD
:1018F000100B51EC100B0BF071FC0199486203982E
:10190000029090ED020A90ED031A30EE410A10EEBB
:10191000100A0CF089F941EC100B9FED0B1B53ECF6
:10192000112B51EC100B0BF093FF41EC100B51EC11
:10193000100B0BF053FC0299886204B080BD00BF0D
:10194000555555555555E53F1FA09145A779E23F9F
:1019500080B5CEB04AA945914D9040F29830C2F280
:10196000000090ED000A9FEDE11A20EE010ABDEEA5
:10197000C00A10EE100AADF8260140F29C30C2F207
:10198000000090ED000A20EE010ABDEEC00A10EE44
:10199000100AADF8240140F2A030C2F2000090ED30
:1019A000000A20EE010ABDEEC00A10EE100AADF8E2
:1019B000220142F60040C4F2010003F0BFFFADF87F
:1019C000200141F22600C2F200004690002202707F
:1019D000BDF82011BDF8263199421346A8BF012356
:1019E000017841EA83010170BDF82011BDF824316E
:1019F0009942A8BF0122017841EA42010170BDF875
:101A00002031BDF822C1017841F001026345A8BF31
:101A1000114601704D9991F848108DF81F1100780A
:101A2000062840F0A980FFE740F28030C2F20000B3
:101A300037900088A0F500600BF07BFE41EC100BA6
:101A400051EC100B9FEDAA0B53EC102B39933892ED
:101A50000BF0FEFE41EC100B51EC100B9FEDA60BB2
:101A600053EC102B3B933A920BF09EFC41EC100B85
:101A700051EC100B9FEDA20B53EC102B3D933C92BD
:101A80000BF092FC41EC100B51EC100B9FED9E0BF8
:101A900053EC102B3F933E920BF086FC41EC100B65
:101AA0008DED340B40F61400C2F200004090006847
:101AB0000CF0BAF89DED341B41EC100B51EC110BFE
:101AC00053EC102B0BF0C2FF41EC100B51EC100B40
:101AD0000BF084FB014637984C914088A0F50060DC
:101AE0000BF027FE389A399B41EC100B51EC100B90
:101AF0000BF0AEFE3A9A3B9B41EC100B51EC100BF5
:101B00000BF052FC3C9A3D9B41EC100B51EC100B3E
:101B10000BF04AFC3E9A3F9B41EC100B51EC100B32
:101B20000BF042FC0246409841920A46419942EC31
:101B3000101B8DED420B40680CF076F89DED421BBA
:101B400041EC100B51EC110B53EC102B0BF07EFF02
:101B500041EC100B51EC100B0BF040FB014645988B
:101B60004B9190ED020AB1EE400A90ED011A30EE71
:101B7000410A80ED000A60E241F22600C2F2000054
:101B80000078052840F0A980FFE740F28030C2F2DB
:101B9000000027900088A0F500600BF0CAFD41EC22
:101BA000100B51EC100B9FED520B53EC102B2993A3
:101BB00028920BF04DFE41EC100B51EC100B9FEDF9
:101BC0004E0B53EC102B2B932A920BF0EDFB41ECB8
:101BD000100B51EC100B9FED4A0B53EC102B2D9377
:101BE0002C920BF0E1FB41EC100B51EC100B9FED34
:101BF000460B53EC102B2F932E920BF0D5FB41ECA0
:101C0000100B8DED240B40F61400C2F20000309052
:101C100000680CF009F89DED241B41EC100B51EC11
:101C2000110B53EC102B0BF011FF41EC100B51EC8E
:101C3000100B0BF0D3FA014627984C918088A0F541
:101C400000600BF076FD289A299B41EC100B51ECBB
:101C5000100B0BF0FDFD2A9A2B9B41EC100B51EC65
:101C6000100B0BF0A1FB2C9A2D9B41EC100B51ECAF
:101C7000100B0BF099FB2E9A2F9B41EC100B51ECA3
:101C8000100B0BF091FB0246309831920A463199C5
:101C900042EC101B8DED320B80680BF0C5FF9DED03
:101CA000321B41EC100B51EC110B53EC102B0BF0D1
:101CB000CDFE41EC100B51EC100B0BF08FFA0146EE
:101CC00045984A9190ED020AB1EE400A90ED001A53
:101CD00030EE410A80ED010AAEE141F22600C2F287
:101CE00000000078032840F0BB8011E000401C4653
:101CF0003333333333330740000000000000B0407B
:101D00007B14AE47E17A843F0000000000003440BD
:101D100040F28030C2F2000017904088A0F50060C9
:101D20000BF007FD41EC100B51EC100B9FEDCE0BAF
:101D300053EC102B199318920BF08AFD41EC100B09
:101D400051EC100B9FEDCA0B53EC102B1B931A9206
:101D50000BF02AFB41EC100B51EC100B9FEDC60B66
:101D600053EC102B1D931C920BF01EFB41EC100B3F
:101D700051EC100B9FEDC20B53EC102B1F931E92D6
:101D80000BF012FB41EC100B8DED140B40F6140020
:101D9000C2F20000209040680BF046FF9DED141B3E
:101DA00041EC100B51EC110B53EC102B0BF04EFED1
:101DB00041EC100B51EC100B0BF010FA0146179888
:101DC0004B918088A0F500600BF0B3FC189A199B2A
:101DD00041EC100B51EC100B0BF03AFD1A9A1B9BC7
:101DE00041EC100B51EC100B0BF0DEFA1C9A1D9B12
:101DF00041EC100B51EC100B0BF0D6FA1E9A1F9B06
:101E000041EC100B51EC100B0BF0CEFA024620986F
:101E100021920A46219942EC101B8DED220B80681D
:101E20000BF002FF9DED221B41EC100B51EC110B4E
:101E300053EC102B0BF00AFE41EC100B51EC100B85
:101E40000BF0CCF9014645984A9190ED010AB1EEAC
:101E5000400A90ED001A30EE410A80ED020AEAE0F5
:101E600041F22600C2F200000078072840F0E1802D
:101E7000FFE740F28030C2F2000007900088A0F532
:101E800000600BF056FC41EC100B51EC100B9FED79
:101E9000760B53EC102B099308920BF0D9FC41EC14
:101EA000100B51EC100B9FED720B53EC102B0B939E
:101EB0000A920BF079FA41EC100B51EC100B9FEDEC
:101EC0006E0B53EC102B0D930C920BF06DFA41EC52
:101ED000100B51EC100B9FED6A0B53EC102B0F9372
:101EE0000E920BF061FA41EC100B8DED000B40F6F9
:101EF0001400C2F20000109000680BF095FE9DEDFA
:101F0000001B41EC100B51EC110B53EC102B0BF0A0
:101F10009DFD41EC100B51EC100B0BF05FF90146ED
:101F200007984C914088A0F500600BF002FC089ADD
:101F3000099B41EC100B51EC100B0BF089FC0A9A39
:101F40000B9B41EC100B51EC100B0BF02DFA0C9A83
:101F50000D9B41EC100B51EC100B0BF025FA0E9A77
:101F60000F9B41EC100B51EC100B0BF01DFA0246CD
:101F7000109803920A46039942EC101B8DED040B56
:101F800040680BF051FE9DED041B41EC100B51EC31
:101F9000110B53EC102B0BF059FD41EC100B51ECD5
:101FA000100B0BF01BF9014607984B918088A0F5A8
:101FB00000600BF0BEFB089A099B41EC100B51EC42
:101FC000100B0BF045FC0A9A0B9B41EC100B51ECEB
:101FD000100B0BF0E9F90C9A0D9B41EC100B51EC36
:101FE000100B0BF0E1F90E9A0F9B41EC100B51EC2A
:101FF000100B0BF0D9F90246109811920A4611996C
:1020000042EC101B8DED120B80680BF00DFE9DED68
:10201000121B41EC100B51EC110B53EC102B0BF07D
:1020200015FD41EC100B51EC100B0BF0D7F84A905A
:1020300000E017E0FFE7FFE7FFE7459890ED020AB1
:10204000B1EE400A90ED011A30EE410A80ED000A2F
:102050004C984D9948604A984D9988604B984D9995
:10206000C860FFE74EB080BD3333333333330740AE
:10207000000000000000B0407B14AE47E17A843FCE
:10208000000000000000344080B5A4B003A8019017
:1020900006A87821FEF7A4F900200590049003908B
:1020A000ADF80A00FFE7BDF80A001D2800F3FC8028
:1020B000FFE7012003F0CAFEBDF80A0009284BDC47
:1020C000FFE740F28030C2F200000088A0F5006017
:1020D0000BF02FFB41EC100B9FED811B53EC112BF0
:1020E00051EC100B0BF0B4FB41EC100B51EC100B4E
:1020F0009FED7D0B53EC102B0BF056F941EC100BC0
:1021000051EC100B9FED7A0B53EC102B0BF04CF9AC
:1021100041EC100B51EC100B9FED770B53EC102B97
:102120000BF042F941EC100B51EC100B0BF056F890
:1021300002460198BDF80A3006A941F82320BDF8EF
:102140000A2001EB820191ED001A90ED020A30EEB7
:10215000010A80ED020AA0E0BDF80A000A2850DB5F
:10216000FFE7BDF80A0013284BDCFFE740F28030A0
:10217000C2F200004088A0F500600BF0DAFA41ECF2
:10218000100B9FED571B53EC112B51EC100B0BF068
:102190005FFB41EC100B51EC100B9FED530B53EC1C
:1021A000102B0BF001F941EC100B51EC100B9FEDD3
:1021B000500B53EC102B0BF0F7F841EC100B51ECDB
:1021C000100B9FED4D0B53EC102B0BF0EDF841EC89
:1021D000100B51EC100B0BF001F802460198BDF802
:1021E0000A3006A941F82320BDF80A2001EB82013C
:1021F00091ED001A90ED010A30EE010A80ED010A1E
:102200004AE040F28030C2F200008088A0F5006011
:102210000BF08FFA41EC100B9FED311B53EC112B9F
:1022200051EC100B0BF014FB41EC100B51EC100BAC
:102230009FED2D0B53EC102B0BF0B6F841EC100B6F
:1022400051EC100B9FED2A0B53EC102B0BF0ACF85C
:1022500041EC100B51EC100B9FED270B53EC102BA6
:102260000BF0A2F841EC100B51EC100B0AF0B6FF8A
:1022700002460198BDF80A3006A941F82320BDF8AE
:102280000A2001EB820191ED001A90ED000A30EE78
:10229000010A80ED000AFFE7FFE7FFE7BDF80A004B
:1022A0000130ADF80A00FEE6019991ED020AB2EEA6
:1022B000041A80EE010A40F61400C2F2000080ED1C
:1022C000000A91ED010A80EE010A80ED010A91ED0C
:1022D000000A80EE010A80ED020A24B080BD00BF32
:1022E0003333333333330740000000000000B04085
:1022F0007B14AE47E17A843F0000000000003440C8
:10230000704700007047000081B0EFF3108072B694
:102310000090FFE7FEE7000083B002904AF2004021
:10232000C4F20000009000980299086402980068C6
:10233000D0F8800020F4F810029A1168526B40EA3D
:102340000240C1F8800000987030029948640298F9
:102350000068D0F8800020F07060029A1168926BDB
:1023600040EA0260C1F880000098B03002998864A9
:10237000009800F5C4700299C864009800F51870C0
:1023800002990865009800F51E700299486500984A
:102390000190FFE70198009901F55471884208D235
:1023A000FFE7019900200860FFE7019804300190E1
:1023B000F0E703B07047000080B586B0059005983F
:1023C0004C21FEF70DF805990120487040F280106D
:1023D000C2F20000009000689FED120A8DED010A24
:1023E0009FED111A8DED021ADFED101ACDED031AD3
:1023F000B7EE082A8DED042AF0EE410A05F050F9F7
:1024000000989DED010A9DED021ADDED031A9DED88
:10241000042A0068F0EE410A05F042F905F08EFA50
:1024200006B080BD6F12833A00000000CDCCCC3DD9
:1024300080B584B047F29050C1F6FF7000680390F9
:1024400047F29450C1F6FF700068029047F298502E
:10245000C1F6FF7000680190019903980844039049
:10246000039888B1FFE7039840F26411C2F20001BB
:1024700000910231082202F043F8009902981231CB
:10248000042202F03DF8FFE704B080BD80B584B0BF
:102490000290029820B9FFE701208DF80F0057E164
:1024A0000298006846F20041C4F20001884201D15E
:1024B000FFE7FFE702988068B0F5407F01D1FFE7B2
:1024C000FFE7029890F85C0040B9FFE7029900200E
:1024D00081F85D00029800F03FF9FFE7029801687B
:1024E000886920F01000886100F032FB0190FFE75E
:1024F0000298006880690007002815D5FFE700F002
:1025000027FB0199401A0B280DD3FFE70299086EAB
:1025100040F0010008660299032081F85C00012068
:102520008DF80F0014E1E3E702980168886940F034
:102530000100886100F00CFB0190FFE70298006841
:102540008069C007A8B9FFE700F002FB0199401AB3
:102550000B280DD3FFE70299086E40F001000866D2
:102560000299032081F85C0001208DF80F00EFE054
:10257000E4E702980168886940F0020088610298E7
:10258000006846F20041C4F20001884208D1FFE72A
:102590000298406846F20051C4F200010860FFE76B
:1025A0000298007C012807D1FFE70298016888693A
:1025B00020F04000886106E002980168886940F0D8
:1025C00040008861FFE70298407C012807D1FFE7BF
:1025D00002980168886940F48040886106E00298AA
:1025E0000168886920F480408861FFE70298807C58
:1025F000012807D1FFE702980168886920F480501C
:10260000886106E002980168886940F4805088611A
:10261000FFE702980068806920F44070029A116810
:1026200092681043886102980168886920F0A400CC
:10263000886102980168086920F01000086102981A
:10264000C068012807D1FFE702980168886940F057
:10265000040088612BE00298C06830B3FFE702985D
:10266000C068022819D0FFE702980168886940F025
:102670008000886102980168086940F010000861D4
:102680000298C068032807D1FFE7029801688869AB
:1026900040F020008861FFE706E002980168886941
:1026A00040F020008861FFE700E0FFE7FFE7029AC3
:1026B000116853699069D2F81CE0A0F1010C6FF029
:1026C000FF0000EB0E2040EA4C60126A013A104312
:1026D0000022CFF6FF7202EB03421043C86102985A
:1026E0008068B0F5407F1CD1FFE7029A1168536AF9
:1026F000906AD2F82CE001386FF0FF0C0CEB0E2C36
:1027000040EA0C00D2F830C06FF00F0202EB0C125E
:1027100010430022CFF6FF7202EB03421043C86061
:10272000FFE702980168C26BD1F8C0001043C1F8FE
:10273000C0000298FFF7F0FD029900208865029919
:102740000866029A012182F85C108DF80F00FFE7FD
:102750009DF80F0004B080BD80B588B007900020C0
:10276000069005900490039002900798006846F246
:102770000041C4F20001884234D1FFE74FF00070FD
:1027800002F0F6FEFFE741F25800C4F202000168D1
:1027900041F000710160006800F000700190019844
:1027A000FFE7FFE741F24C00C4F20200016841F08C
:1027B00002010160006800F0020000900098FFE74D
:1027C0004FF4407002900220039000200490059086
:1027D0000920069040F20040C4F6000002A900F073
:1027E00003F8FFE708B080BD8BB00A900991002084
:1027F0000890FFE7099800680899C840002800F091
:10280000A581FFE709980068089A012191400840D6
:1028100007900798002800F09581FFE70998406825
:1028200000F00300012807D0FFE70998406800F096
:10283000030002282FD1FFE70A98806806900898C5
:102840004100032000FA01F1069888430690099898
:10285000C0680899490000FA01F1069808430690FB
:1028600006980A9988600A9840680690089901209D
:1028700000FA01F106988843069009984068C0F371
:102880000010089900FA01F106980843069006988E
:102890000A994860FFE70998406800F003000328A0
:1028A00018D0FFE70A98C0680690089841000320F6
:1028B00000FA01F106988843069009988068089903
:1028C000490000FA01F106980843069006980A9913
:1028D000C860FFE70998406800F00300022826D18D
:1028E000FFE70A9808996FF0030202EA51010844D1
:1028F000006A0690089800F0070081000F2000FA97
:1029000001F106988843069009980069089901F03A
:102910000701890000FA01F106980843069006981D
:102920000A99089B02EA530211440862FFE70A98D9
:102930000068069008984100032000FA01F106980B
:10294000884306900998406800F003000899490000
:1029500000FA01F106980843069006980A99086063
:10296000099880798007002800F0EB80FFE7FFE7F7
:1029700041F26000C4F20200016841F0010101600F
:10298000006800F0010005900598FFE7089820F026
:1029900003000821C4F2010140580690089800F095
:1029A000030081000F2000FA01F106988843069089
:1029B0000A98B0F1904F03D1FFE70020049042E065
:1029C0000A9840F20041C4F60001884203D1FFE7B3
:1029D0000120039034E00A9840F60001C4F600019B
:1029E000884203D1FFE70220029026E00A9840F6D1
:1029F0000041C4F60001884203D1FFE703200190A3
:102A000018E00A9841F20001C4F60001884203D19F
:102A1000FFE7042000900AE00A9941F20042C4F660
:102A200000020620914208BF05200090FFE70098B1
:102A30000190FFE701980290FFE702980390FFE7FB
:102A400003980490FFE70498089901F003018900B6
:102A500000FA01F10698084306900698089921F0BB
:102A600003010822C4F20102885040F20840C4F277
:102A70000100006806900799069888430690099817
:102A80008079C006002805D5FFE707990698084316
:102A90000690FFE7069840F20841C4F20101086081
:102AA00040F20C40C4F201000068069007990698B5
:102AB00088430690099880798006002805D5FFE7AD
:102AC0000799069808430690FFE7069840F20C41E4
:102AD000C4F20101086040F20440C4F20100006841
:102AE0000690079906988843069009988079800790
:102AF000002805D5FFE70799069808430690FFE7E9
:102B0000069840F20441C4F20101086040F200401E
:102B1000C4F2010000680690079906988843069061
:102B200009988079C00728B1FFE7079906980843FC
:102B30000690FFE7069840F20041C4F201010860E8
:102B4000FFE7FFE708980130089053E60BB07047A5
:102B500041F2B460C2F200000068704740F21430E5
:102B6000C2F20000026841F2B461C2F200010868DA
:102B7000104408607047000080B582B000208DF8D6
:102B80000700032000F0A2F80F2000F00DF820B19C
:102B9000FFE701208DF8070002E000F049F8FFE7A9
:102BA0009DF8070002B080BD80B582B00190002082
:102BB0008DF8030040F21430C2F20000006878B3D0
:102BC000FFE740F22400C2F20000006840F2143136
:102BD000C2F200010A684FF47A71B1FBF2F1B0FB66
:102BE000F1F001F00BFBB0B9FFE701980F280DD809
:102BF000FFE701994FF0FF30002200F04FF80198F5
:102C000040F21831C2F20001086003E001208DF8A3
:102C10000300FFE703E001208DF80300FFE703E076
:102C200001208DF80300FFE79DF8030002B080BD8E
:102C300080B582B0FFE741F26000C4F20200016893
:102C400041F001010160006800F00100019001986D
:102C5000FFE7FFE741F25800C4F20200016841F0CB
:102C600080510160006800F0805000900098FFE7FC
:102C7000202001F0B5FA01F07BFA002001F0A2FA61
:102C800001F06CFA02B080BD80B582B08DF807000B
:102C90009DF9070009F04AFA02B080BD80B586B000
:102CA0008DF817000491039209F068FA02909DF9DB
:102CB0001700019002980499039A03F047FE014619
:102CC000019809F0A7FA06B080BD000080B582B077
:102CD0000190019809F0C0FA02B080BD82B0019065
:102CE00001980068009001990120C1F8E80201995B
:102CF000002081F8E002009AB2F8541041F001017E
:102D0000A2F85410009AB2F8541041F00201A2F84F
:102D1000541002B07047000080B584B003908DF865
:102D20000B109DF80B000146019120B1FFE70198BF
:102D3000012815D027E00398806958B1FFE705F016
:102D400071FB4EF61051CEF20001086820F006002B
:102D50000860FFE70398D0F8F00206F001FF12E0E8
:102D60000398D0F8F00206F0E1FF0398806948B1BB
:102D7000FFE74EF61051CEF20001086840F0060061
:102D80000860FFE7FFE704B080BD000084B0039057
:102D9000ADF80A10ADF808200193BDF80A0000064E
:102DA00000280CD5FFE70398BDF80A1001F00701D1
:102DB00001EB810100EBC100283000900AE003988C
:102DC000BDF80A1001EB810100EBC10000F5B47001
:102DD0000090FFE7BDF8080038B9FFE70099002030
:102DE000087301980099C8800AE0009901200873CF
:102DF000019800990881BDF8060000994881FFE715
:102E0000002004B07047000080B582B001908DF8BA
:102E10000310019AD2F8F0029DF8031001EB810330
:102E200002EBC302D26B06F053FC02B080BD00007F
:102E300080B582B001908DF80310019AD2F8F002AB
:102E40009DF8031001EB810302EBC302D2F87C2151
:102E500006F0E4FC02B080BD80B584B002908DF82D
:102E600007109DF80700000600280FD5FFE702981D
:102E70009DF8071001F0070101EB810100EBC10093
:102E8000283000900099012048700FE002989DF8CA
:102E9000071001F0070101EB810100EBC10000F513
:102EA000B4700090009900204870FFE79DF807007B
:102EB00000F0070000990870FFE7029890F8A80258
:102EC000012804D1FFE702208DF80F0014E00299D9
:102ED000012081F8A802FFE7FFE702980068009947
:102EE00007F082FEFFE70299002081F8A802FFE7C1
:102EF00000208DF80F00FFE79DF80F0004B080BDA3
:102F000080B584B002908DF807109DF8070000F09E
:102F10000F0002994968884204D9FFE701208DF823
:102F20000F004DE09DF80700000600280FD5FFE7D1
:102F300002989DF8071001F0070101EB810100EBF9
:102F4000C100283000900099012048700FE00298DD
:102F50009DF8071001F0070101EB810100EBC100B2
:102F600000F5B4700090009900204870FFE70099C8
:102F7000002088709DF8070000F007000099087095
:102F8000FFE7029890F8A802012804D1FFE7022089
:102F90008DF80F0014E00299012081F8A802FFE7E4
:102FA000FFE702980068009908F00EF8FFE7029921
:102FB000002081F8A802FFE700208DF80F00FFE74E
:102FC0009DF80F0004B080BD80B586B005900491D7
:102FD000ADF80E20BDF80E004004002876D5FFE7BE
:102FE00005980068B0F850000499097800EBC1001A
:102FF000059909680844B0F802046FF39F20ADF802
:103000000C0004988069BDF80C10884207D3FFE7D4
:10301000BDF80C2004998869801A886103E004993E
:1030200000208861FFE704988069F8B9FFE7FFE7AF
:10303000059800680499097830F821004BF68F71E3
:103040000840ADF80A00BDF80A0080F40050ADF861
:103050000A00BDF80A0048F2800108430599096892
:10306000049A127821F82200FFE7FFE7BDF80E006E
:10307000400600281BD5FFE7FFE7FFE7059800683B
:103080000499097830F8210048F68F710840ADF8AE
:103090000800BDF8080048F2C00108430599096816
:1030A000049A127821F82200FFE7FFE7FFE7BDF856
:1030B0000C0050B1FFE705980068049A5169128925
:1030C000BDF80C3008F074FFFFE775E00598006864
:1030D000B0F850000499097800EBC100059909681F
:1030E0000844B0F806046FF39F20ADF80C00049874
:1030F0008069BDF80C10884207D3FFE7BDF80C20AB
:1031000004998869801A886103E004990020886125
:10311000FFE704988069F8B9FFE7FFE705980068C2
:103120000499097830F821004BF68F710840ADF80A
:103130000600BDF8060080F40050ADF80600BDF8AA
:10314000060048F28001084305990968049A12783C
:1031500021F82200FFE7FFE7BDF80E004006002837
:103160001BD4FFE7FFE7FFE705980068049909789B
:1031700030F8210048F68F710840ADF80400BDF822
:10318000040048F2C001084305990968049A1278BE
:1031900021F82200FFE7FFE7FFE7BDF80C0050B180
:1031A000FFE705980068049A51695289BDF80C3010
:1031B00008F0FEFEFFE7FFE7BDF80C0006B080BD9B
:1031C00080B5A6B025902491ADF88E20BDF88E0074
:1031D0004006002840F1B781FFE725980068B0F865
:1031E00050002499097800EBC1002599096808442A
:1031F000B0F802046FF39F20ADF886002498806930
:10320000BDF88610884207D9FFE7BDF886202499CB
:103210008869801A886103E0249900208861FFE7AB
:1032200024988069002840F0B080FFE7FFE72498E9
:10323000407808BBFFE7FFE72598006820902598B5
:103240000068B0F8501020980844209020982499E5
:10325000097800EBC10000F202401F90FFE71F99C0
:10326000088820F4F84008801F99088840F400403E
:103270000880FFE7FFE71DE024984078012818D177
:10328000FFE7FFE7259800681D9025980068B0F8D3
:1032900050101D9808441D901D982499097800EB42
:1032A000C10000F202401C901C9900200880FFE73A
:1032B000FFE7FFE7FFE7FFE7259800681B902498EA
:1032C000407808BBFFE7FFE725980068199025982C
:1032D0000068B0F85010199808441990199824996A
:1032E000097800EBC10000F206401890FFE718993A
:1032F000088820F4F84008801899088840F40040B5
:103300000880FFE7FFE718E024984078012813D1F0
:10331000FFE725980068B0F850101B9808441B90F0
:103320001B982499097800EBC10000F206401A901E
:103330001A9900200880FFE7FFE7FFE72598249906
:103340000978FFF761FDBDF88E00400400281BD509
:10335000FFE7FFE7FFE7259800682499097830F830
:10336000210048F68F710840ADF85A00BDF85A00A8
:103370004CF28001084325990968249A127821F8B3
:103380002200FFE7FFE7FFE7DCE0BDF88E00400426
:1033900000281BD5FFE7FFE7FFE725980068249981
:1033A000097830F8210048F68F710840ADF85800D0
:1033B000BDF858004CF28001084325990968249A09
:1033C000127821F82200FFE7FFE7FFE7249890F842
:1033D0002400012840F0B580FFE7BDF8862024993D
:1033E000486910444861BDF886202499C869104492
:1033F000C86124980169006A884209D3FFE72498CC
:1034000000692290229A2499086A801A086216E0BC
:103410002498006A40B9FFE7BDF8860022902499FD
:10342000002081F8240009E02499002081F824007C
:103430002499096A229124990862FFE7FFE7FFE7D0
:1034400024984078002853D1FFE7FFE725980068CB
:10345000159025980068B0F85010159808441590FC
:1034600015982499097800EBC10000F202401490ED
:10347000FFE722983F2816D3FFE7FFE7229840098D
:1034800013909DF88800C00620B9FFE71398013813
:103490001390FFE713994FF4004040EA81201499FC
:1034A0000880FFE721E0229858B9FFE714990888BF
:1034B00020F4F84008801499088840F400400880FF
:1034C00012E0FFE72298400813909DF88800C0079B
:1034D00020B1FFE7139801301390FFE713988002A3
:1034E00014990880FFE7FFE7FFE7FFE7FFE71DE02C
:1034F00024984078012818D1FFE7FFE72598006855
:10350000129025980068B0F8501012980844129054
:1035100012982499097800EBC10000F20240119042
:10352000229811990880FFE7FFE7FFE7FFE725985A
:103530000068249A51691289BDF8883008F08AFD24
:10354000FFE7FFE7B3E125980068B0F85000249941
:10355000097800EBC100259909680844B0F8060411
:103560006FF39F20ADF8860024988069BDF886101F
:10357000884207D3FFE7BDF8862024998869801A1E
:10358000886103E0249900208861FFE7249880691E
:10359000002840F0B080FFE7FFE72498407808BBA0
:1035A000FFE7FFE725980068109025980068B0F8BD
:1035B000501010980844109010982499097800EB46
:1035C000C10000F202400F90FFE70F99088820F435
:1035D000F84008800F99088840F400400880FFE711
:1035E000FFE71DE024984078012818D1FFE7FFE7A6
:1035F000259800680D9025980068B0F850100D9837
:1036000008440D900D982499097800EBC10000F250
:1036100002400C900C9900200880FFE7FFE7FFE7CD
:10362000FFE7FFE7259800680B902498407808BBD7
:10363000FFE7FFE725980068099025980068B0F833
:10364000501009980844099009982499097800EBCA
:10365000C10000F206400890FFE70899088820F4AE
:10366000F84008800899088840F400400880FFE787
:10367000FFE718E024984078012813D1FFE7259848
:103680000068B0F850100B9808440B900B982499E0
:10369000097800EBC10000F206400A900A99002068
:1036A0000880FFE7FFE7FFE7259824990978FFF7EF
:1036B000ABFBBDF88E00400400281BD4FFE7FFE7FA
:1036C000FFE7259800682499097830F8210048F62A
:1036D0008F710840ADF81A00BDF81A004CF2800155
:1036E000084325990968249A127821F82200FFE7F7
:1036F000FFE7FFE7DAE0BDF88E00400400281BD4A6
:10370000FFE7FFE7FFE7259800682499097830F87C
:10371000210048F68F710840ADF81800BDF8180078
:103720004CF28001084325990968249A127821F8FF
:103730002200FFE7FFE7FFE7249890F82400012824
:1037400040F0B380FFE7BDF8862024994869104413
:103750004861BDF886202499C8691044C86124983E
:103760000169006A884209D3FFE724980069229022
:10377000229A2499086A801A086216E02498006A3E
:1037800040B9FFE7BDF8860022902499002081F817
:10379000240009E02498006A2290249900200862FD
:1037A000249981F82400FFE7FFE7FFE725980068E8
:1037B000059024984078002853D1FFE7FFE725982B
:1037C0000068039025980068B0F8501003980844EA
:1037D000039003982499097800EBC10000F2064099
:1037E0000290FFE722983F2816D3FFE7FFE72298D1
:1037F000400901909DF88800C00620B9FFE70198B4
:1038000001380190FFE701994FF4004040EA812020
:1038100002990880FFE721E0229858B9FFE7029952
:10382000088820F4F84008800299088840F4004095
:10383000088012E0FFE72298400801909DF8880078
:10384000C00720B1FFE7019801300190FFE7019820
:10385000800202990880FFE7FFE7FFE7FFE7FFE745
:1038600018E024984078012813D1FFE725980068D4
:10387000B0F85010059808440590059824990978E7
:1038800000EBC10000F206400490229804990880E1
:10389000FFE7FFE7FFE725980068249A51695289FE
:1038A000BDF8883008F0D6FBFFE7FFE7FFE7FFE74A
:1038B000259800682499097830F8210048F6BF71EE
:1038C0000840ADF80200BDF8020080F01000ADF82D
:1038D0000200BDF8020080F02000ADF80200BDF843
:1038E000020048F28001084325990968249A127859
:1038F00021F82200FFE7002026B080BD82B00190B1
:103900008DF8031001989DF8031001F0070101EBF9
:10391000810100EBC100D0F8840102B070470000C3
:1039200080B586B004908DF80F10ADF80C208DF89E
:103930000B3000208DF80A009DF80F0000060028CB
:103940000FD5FFE704989DF80F1001F0070101EB78
:10395000810100EBC10028300190019901204870DD
:103960000FE004989DF80F1001F0070101EB8101B1
:1039700000EBC10000F5B47001900199002048707F
:10398000FFE79DF80F0000F0070001990870BDF8EF
:103990000C00019908619DF80B000199C87001980D
:1039A000407820B1FFE701990878C881FFE79DF8CA
:1039B0000B00022804D1FFE7019900200871FFE7FE
:1039C000FFE7049890F8A802012804D1FFE702203D
:1039D0008DF8170015E00499012081F8A802FFE78F
:1039E000FFE704980068019906F0D8FDFFE7049905
:1039F000002081F8A802FFE79DF80A008DF8170063
:103A0000FFE79DF8170006B080BD000080B586B0C6
:103A100005908DF813100392029305989DF81310EA
:103A200001F0070101EB810100EBC10000F5B4706A
:103A30000190039801994861029801998861019960
:103A40000020C861019948709DF8130000F007003C
:103A5000019908709DF81300400730B9FFE70598F9
:103A60000068019907F098FB05E005980068019946
:103A700007F092FBFFE7002006B080BD80B584B060
:103A800002908DF807109DF8070000F007000299DA
:103A90004968884204D9FFE701208DF80F004BE008
:103AA0009DF80700000600280FD5FFE702989DF853
:103AB000071001F0070101EB810100EBC100283084
:103AC00000900099012048700DE002989DF80710C1
:103AD00001EB810100EBC10000F5B470009000998A
:103AE00000204870FFE70099012088709DF80700CA
:103AF00000F0070000990870FFE7029890F8A8020C
:103B0000012804D1FFE702208DF80F0014E002998C
:103B1000012081F8A802FFE7FFE7029800680099FA
:103B200007F0F6FAFFE70299002081F8A802FFE704
:103B300000208DF80F00FFE79DF80F0004B080BD56
:103B400080B586B005908DF8131003920293059806
:103B50009DF8131001F0070101EB810100EBC1009A
:103B60002830019003980199486102980199886171
:103B70000199012081F824000299019A1162019AA9
:103B80000021D161019948709DF8130000F00700F1
:103B9000019908709DF81300400730B9FFE70598B8
:103BA0000068019907F0F8FA05E0059800680199A6
:103BB00007F0F2FAFFE7002006B080BD80B582B0C2
:103BC00001900198006808F0E9F900909DF8010063
:103BD0000006002804D5FFE7019803F0EDF9DFE0C7
:103BE0009DF801004007002810D5FFE70198016803
:103BF000B1F8440020F48060A1F84400019800F07E
:103C0000EFF90198002100F02BFAC9E09DF80100BE
:103C10004006002809D5FFE701980168B1F8440083
:103C200020F48040A1F84400BAE09DF8010080062D
:103C3000002809D5FFE701980168B1F8440020F495
:103C40000050A1F84400ABE09DF80100C006002838
:103C50002AD5FFE701980168B1F8400020F0040080
:103C6000A1F8400001980168B1F8400020F0080078
:103C7000A1F84000019890F8E002012808D1FFE780
:103C80000198002180F8E0120198FFF745F8FFE75E
:103C9000019800F0C1F901980168B1F8440020F4DE
:103CA0008050A1F844007BE09DF801000007002847
:103CB0001CD5FFE701980168B1F8400040F008000A
:103CC000A1F8400001980168B1F8440020F40060B8
:103CD000A1F8440001980168B1F8400040F00400E8
:103CE000A1F84000019800F021FA59E09DF8000089
:103CF0000006002834D5FFE701980168B1F84400B8
:103D000020F08000A1F84400019890F8E00210BB78
:103D1000FFE701980168B1F8400040F00400A1F805
:103D2000400001980168B1F8400040F00800A1F897
:103D300040000198012180F8E01201980068B0F875
:103D4000540000F0F0008008019AC2F8E4020198E3
:103D5000FEF7E2FF03E0019800F0E8F9FFE71FE05B
:103D60009DF80100800700280CD5FFE70198016845
:103D7000B1F8440020F40070A1F84400019800F06C
:103D800065F90DE09DF80100C00748B1FFE7019813
:103D90000168B1F8440020F48070A1F84400FFE706
:103DA00002B080BDF0B589B00790079820B9FFE751
:103DB00001208DF82300E4E0079890F8A90240B9AB
:103DC000FFE70799002081F8A802079800F0DEF8C5
:103DD000FFE70799032081F8A9020798006807F018
:103DE000E3F800208DF81B00FFE79DF81B00079902
:103DF0004968884244D2FFE707989DF81B1001EB01
:103E0000810100EBC101012081F829009DF81B0010
:103E1000079900EB800201EBC20181F828009DF8B0
:103E20001B00079900EB800201EBC201C8860798CE
:103E30009DF81B1001EB810100EBC101002081F80E
:103E40002B0007999DF81B2002EB820201EBC201B7
:103E5000886307999DF81B2002EB820201EBC201E7
:103E6000C86307999DF81B2002EB820201EBC20197
:103E70000864FFE79DF81B0001308DF81B00B4E7D4
:103E800000208DF81B00FFE79DF81B00079949688B
:103E900088423ED2FFE707989DF81B1001EB810195
:103EA00000EBC101002081F869019DF81B10079A01
:103EB00001EB810302EBC30282F8681107999DF8B8
:103EC0001B2002EB820201EBC20181F86B01079912
:103ED0009DF81B2002EB820201EBC201C1F87801C0
:103EE00007999DF81B2002EB820201EBC201C1F889
:103EF0007C0107999DF81B2002EB820201EBC201B5
:103F0000C1F88001FFE79DF81B0001308DF81B0010
:103F1000BAE7DDF81CE0CDF814E0DEF80000DEF8CA
:103F20000410DEF80820DEF80C30DEF810C0DEF8F1
:103F30001440DEF81850DEF81C60DEF82070EE4603
:103F4000CEF81070CEF80C60CEF80850CEF80440D1
:103F5000CEF800C007F004F80799002081F824008B
:103F60000799012081F8A9020798C069012804D1A6
:103F7000FFE70798FEF7B2FEFFE700208DF8230069
:103F8000FFE79DF8230009B0F0BD000080B584B0C4
:103F900003900398006845F60041C4F2000188428E
:103FA0001CD1FFE7002001F027FBFFE741F258009A
:103FB000C4F20200016841F400010160006800F4ED
:103FC000000002900298FFE71420019000221146A1
:103FD000FEF764FE0198FEF757FEFFE704B080BDD0
:103FE00080B582B0019001208DF8030001988068AF
:103FF000022803D0FFE7FEF787F9FFE70198D0F822
:10400000F0029DF8031005F0E5FD0198D0F8F002EC
:1040100005F056FD02B080BD80B582B001900198D8
:10402000806958B1FFE74EF61051CEF200010868E2
:1040300020F00600086004F0F5F9FFE70198D0F8D9
:10404000F00205F08DFD02B080BD000080B582B0A9
:1040500001900198D0F8F00205F094FD02B080BD07
:1040600080B584B002908DF80710FFE7029890F8B1
:10407000A802012804D1FFE702208DF80F001AE002
:104080000299012081F8A802FFE7FFE79DF80700E9
:10409000029981F82400029800689DF8071007F043
:1040A000C9FFFFE70299002081F8A802FFE700207E
:1040B0008DF80F00FFE79DF80F0004B080BD0000F1
:1040C00080B582B001900199D1F8F00201F52C7110
:1040D00005F0AAFD02B080BD80B582B00090FFE778
:1040E000009890F8A802012804D1FFE702208DF87B
:1040F000070017E00099012081F8A802FFE7FFE719
:104100000098006807F032FF0098006806F01CFF76
:10411000FFE70099002081F8A802FFE700208DF852
:104120000700FFE79DF8070002B080BD80B582B0B0
:1041300001900198D0F8F00205F0F8FD019880692F
:1041400048B1FFE74EF61051CEF20001086840F08A
:1041500006000860FFE702B080BD000047F20801DA
:10416000C4F20001086840F4804008607047000015
:1041700080B582B03021C4F20101086840F001002E
:104180000860FEF7E5FC0090FFE73020C4F2010074
:104190000068000700280CD4FFE7FEF7D9FC00995F
:1041A000401A0B2804D3FFE703208DF8070004E032
:1041B000EBE700208DF80700FFE79DF8070002B04D
:1041C00080BD000081B000903021C4F20101086878
:1041D00020F00200009A1043086001B07047000010
:1041E00081B000903021C4F20101086820F0300055
:1041F000009A1043086001B07047000080B582B09B
:104200000190019804F0E0F802B080BDFFE7FEE7FE
:1042100080B584B040F20040C4F6000002904FF434
:104220000041019100F054FE00F064F902984FF44F
:104230008041039100F04CFE00F05CF90199029876
:1042400000F0CCFE00F056F90199029800F040FE13
:104250000298039900F0C2FE04B080BD80B584B01E
:1042600040F20040C4F6000002904FF4004101917A
:1042700000F02EFE00F03EF902984FF480410391C9
:1042800000F0ACFE00F036F90199029800F0A6FEAD
:1042900000F030F90199029800F01AFE0298039993
:1042A00000F09CFE04B080BD80B582B040F20040BA
:1042B000C4F6000000904FF48041019100F008FE28
:1042C00000F018F900984FF4004100F087FE00F06C
:1042D00011F90098019900F081FE02B080BD000044
:1042E00080B584B000208DF80F008DF80E00FFE738
:1042F0009DF80E00072828DCFFE740F20040C4F6D6
:10430000000001904FF40041009100F0E1FD00F049
:10431000F1F80099019800F061FE00F0EBF80198C7
:104320009DF80F1002914FF4804100F0B3FD029907
:1043300040EA41008DF80F0000F0DCF8FFE79DF83F
:104340000E0001308DF80E00D2E740F20040C4F6B6
:1043500000004FF4004100F0BBFD00F0CBF89DF8E9
:104360000F0004B080BD000080B5FFF7B9FF80BD2D
:1043700080B584B040F20040C4F6000002904FF4D3
:104380008041019100F02AFE00F0B4F802984FF449
:104390000041039100F022FE00F0ACF80199029870
:1043A00000F096FD00F0A6F80298039900F090FD49
:1043B00000F0A0F804B080BD80B582B000208DF878
:1043C000060040F20040C4F6000000904FF4804127
:1043D00000F004FE00F08EF800984FF4004100F069
:1043E000FDFD00F087F8FFE740F20040C4F6000052
:1043F0004FF4804100F04EFD012817D1FFE79DF8F2
:10440000060001308DF806009DF80600FB280CDB45
:10441000FFE7FFF749FF4DF6F360C0F6000006F036
:104420009DF801208DF8070010E0DDE700F062F84C
:1044300040F20040C4F600004FF4004100F048FD97
:1044400000F058F800208DF80700FFE79DF80700FE
:1044500002B080BD80B584B08DF80F0000208DF8CB
:104460000E00FFE79DF80E00072834DCFFE79DF8FB
:104470000F009DF80E208021D140084209D0FFE7AF
:1044800040F20040C4F600004FF4804100F0A6FD69
:1044900008E040F20040C4F600004FF4804100F014
:1044A00017FDFFE700F026F840F20040C4F60000D8
:1044B00001904FF40041029100F090FD00F01AF8D5
:1044C0000198029900F004FDFFE79DF80E0001300D
:1044D0008DF80E00C6E700F00DF804B080BD0000B6
:1044E00080B582B08DF807009DF80700FFF7B2FF96
:1044F00002B080BD80B5022008F072F980BD0000D6
:1045000083B0029001918DF8032000208DF8020005
:104510008DF80200FFE79DF802009DF80310884225
:1045200029DAFFE70298000F092809D8FFE7029867
:10453000000F303001999DF8022001F8120009E0C7
:104540000299372000EB117001999DF8022001F8C3
:104550001200FFE702980001029001989DF80210F6
:1045600000EB410100204870FFE79DF80200013098
:104570008DF80200CFE703B07047000080B584B02B
:104580000390029100208DF807000298406808B15E
:10459000FFE7FFE74FF0A04000F0AEF8009040F2D8
:1045A0000010C5F2000000F0A7F80146009808438B
:1045B00038BBFFE702984068A8B1FFE7039880681E
:1045C00043F2E001CFF6C0710840029A1168D2F8B8
:1045D00004C09368D26841EA0C01194311430843AF
:1045E000039988600CE00398806843F2E001CFF6FD
:1045F000C071084002990968084303998860FFE781
:1046000003E001208DF80700FFE79DF8070004B0E4
:1046100080BD000083B002900191019820B9FFE7AE
:1046200002984030009005E040F20C30C5F20000E6
:104630000090FFE7009803B07047000081B0009041
:10464000009988684FF6C072C5F6FF721040886006
:1046500001B0704781B00090009880684FF6C0713B
:10466000C7F6FF71084001300099886001B07047BB
:1046700081B000900098806840F080504FF6C07183
:10468000C7F6FF7108400099886001B070470000CC
:1046900080B584B00390029100208DF80700039844
:1046A00000F02AF878B9FFE70398C0684CF21801C7
:1046B0008843029A1168536892681943114308436A
:1046C0000399C86003E001208DF80700FFE79DF81B
:1046D000070004B080BD000081B000900098006821
:1046E00000F0010001B0704781B000900098806830
:1046F000C00F01B07047000081B000900098806842
:1047000000F0010001B0704780B584B003900291C1
:1047100000208DF807000298406808B1FFE7FFE726
:104720000398FFF7E9FFC0BBFFE702984068C8B1F4
:10473000FFE70398C0684CF21C01CFF6F071084007
:10474000029A1168D2F808E0D2F80CC0136941EA65
:104750000E0141EA0C0119435269114308430399C0
:10476000C86014E00398C0684CF21C01CFF6F071E9
:104770000840029A1168D2F80CC01369526941EAE4
:104780000C011943114308430399C860FFE70398DC
:104790000299496800F018F803E001208DF807003D
:1047A000FFE79DF8070004B080BD000082B00190D3
:1047B00000910198C06820F0030000990843019916
:1047C000C86002B07047000082B00190009101986B
:1047D000006B20F00F00009908430199086302B0B4
:1047E0007047000084B003900291019203980299EF
:1047F00001F4407100EB9110303000900098006897
:10480000029901F01F021F21914088430199C1F3D1
:104810008461914008430099086004B0704700002B
:1048200081B00090009880684FF6C071C7F6FF71A4
:10483000084004300099886001B0704784B003904C
:10484000029101920398029901F0007100EBD1509E
:1048500014300090009800680299C1F304520721B7
:10486000914088430199914008430099086004B041
:104870007047000083B002900191009200980021DF
:10488000C4F27F0188420AD1FFE7019A6FF3DF4249
:104890000299D1F8B0001043C1F8B0000CE00199C2
:1048A0000020CFF6F87060EA01020299D1F8B0005A
:1048B0001040C1F8B000FFE703B0704782B001902C
:1048C00000910198D0F8C00043F6FF718843009929
:1048D00008430199C1F8C0000198006920F48031B3
:1048E000009A01F58030002A08BF08460199086146
:1048F00002B0704782B0019000910198006940F2C7
:1049000003418843009908430199086102B0704748
:1049100082B001900091019880684FF6C071C3F693
:10492000FF710140009800F08040084400F1004011
:104930000199886002B0704782B00190019A41F2FB
:104940004800C4F202000168114301600068019947
:1049500008400090009802B07047000082B00190BB
:10496000019A41F24C00C4F2020001681143016057
:104970000068019908400090009802B0704700005C
:1049800082B00190019A41F24C00C4F20200016829
:10499000114301600068019908400090009802B03E
:1049A0007047000082B00190019A41F24C00C4F2BD
:1049B00002000168114301600068019908400090FD
:1049C000009802B07047000082B00190019A41F255
:1049D0004C00C4F2020001681143016000680199B3
:1049E00008400090009802B07047000082B001902B
:1049F000019A41F24C00C4F20200016811430160C7
:104A00000068019908400090009802B070470000CB
:104A100082B00190019A41F24C00C4F20200016898
:104A2000114301600068019908400090009802B0AD
:104A30007047000082B00190019A41F24C00C4F22C
:104A4000020001681143016000680199084000906C
:104A5000009802B07047000082B00190019A41F2C4
:104A60005800C4F202000168114301600068019916
:104A700008400090009802B07047000082B001909A
:104A8000019A41F25800C4F202000168114301602A
:104A90000068019908400090009802B0704700003B
:104AA00082B00190019A41F25800C4F202000168FC
:104AB000114301600068019908400090009802B01D
:104AC0007047000082B00190019A41F25800C4F290
:104AD00002000168114301600068019908400090DC
:104AE000009802B07047000082B00190019A41F234
:104AF0006000C4F20200016811430160006801997E
:104B000008400090009802B07047000082B0019009
:104B1000019A41F26000C4F2020001681143016091
:104B20000068019908400090009802B070470000AA
:104B300085B0DDF814C004900391029201930498AB
:104B400000900598102811D1FFE702980099039B67
:104B50004DF68862C0F60002D35C1944C860019823
:104B60000099039BD25C1144886010E00298009980
:104B7000039B4DF68862C0F60002D35C194488603E
:104B800001980099039BD25C1144C860FFE705B00F
:104B90007047000083B00290019102980090009944
:104BA000019A4DF68860C0F60000825C885840F09B
:104BB0000100885003B0704784B0039002910192C5
:104BC00003980090009802994DF68E62C0F600029C
:104BD000515C405820F44050019908430099029BD1
:104BE000D25C885004B0704784B003900291019267
:104BF00003980090009802994DF68862C0F6000272
:104C0000515C084440684FF6FF718843019908439E
:104C10000099029BD25C1144486004B070470000C8
:104C200084B0039002910192039800900098029939
:104C30004DF68E62C0F60002515C405844F21001FD
:104C40008843019908430099029BD25C885004B0C4
:104C50007047000084B00390029101920398009085
:104C6000009802994DF68E62C0F60002515C4058E1
:104C700020F08000019908430099029BD25C885083
:104C800004B0704784B003900291019203980090A1
:104C9000009802994DF68E62C0F60002515C4058B1
:104CA00020F44060019908430099029BD25C88502F
:104CB00004B0704784B00390029101920398009071
:104CC000009802994DF68E62C0F60002515C405881
:104CD00020F02000019908430099029BD25C885083
:104CE00004B0704784B00390029101920398009041
:104CF000009802994DF68E62C0F60002515C405851
:104D000020F04000019908430099029BD25C885032
:104D100004B0704784B0039002910192039800217F
:104D2000C4F2020141406FF0070000EAD110009088
:104D300002988000009900EB810040F60002C4F266
:104D40000202805820F0FF0001990843029989006F
:104D5000009B01EB8301885004B0704784B003903E
:104D60000291019203980090009802994DF68E628C
:104D7000C0F60002515C405820F44070019908438D
:104D80000099029BD25C885004B0704742F2000048
:104D9000C4F20200006800F00F00704781B000907C
:104DA00042F20001C4F20201086820F00F00009AEC
:104DB0001043086001B0704780B586B0039002913F
:104DC0000298006890FAA0F00490049820B9FFE7D8
:104DD00020208DF8170005E00498B0FA80F08DF8D7
:104DE0001700FFE79DF817000190FFE702980068A1
:104DF0000199C84000284AD0FFE702980068019A4C
:104E000001219140084000900098E0B3FFE702982C
:104E10004068012805D0FFE70298406802280DD1BC
:104E2000FFE703980099029A926800F06BF90398E3
:104E3000029A1168D26800F017F9FFE70398009909
:104E4000029A126900F020F902984068022813D1F2
:104E5000FFE70098FF2807D8FFE703980099029A18
:104E6000526900F03DF806E003980099029A5269F1
:104E700000F074F8FFE7FFE703980099029A526880
:104E800000F0B4F8FFE7019801300190AEE7002090
:104E900006B080BD82B00190009101980069009930
:104EA0000840401AB0FA80F0400902B07047000094
:104EB00082B00190009100980199886202B0704719
:104EC00082B00190009100980199886202B0704709
:104ED00082B00190009100980199886202B07047F9
:104EE0008AB00590049103920598006A0290049894
:104EF00090FAA0F00890089820B9FFE720208DF8DC
:104F0000270005E00898B0FA80F08DF82700FFE749
:104F100002989DF827108A000F2191408843009045
:104F200003980190049890FAA0F00690069820B992
:104F3000FFE720208DF81F0005E00698B0FA80F00A
:104F40008DF81F00FFE7009801999DF81F2092003F
:104F500091400843059908620AB070478AB00590ED
:104F6000049103920598406A02900498000A90FA0E
:104F7000A0F00890089820B9FFE720208DF82700BE
:104F800005E00898B0FA80F08DF82700FFE7029856
:104F90009DF827108A000F219140884300900398C4
:104FA00001900498000A90FAA0F00690069820B9A3
:104FB000FFE720208DF81F0005E00698B0FA80F08A
:104FC0008DF81F00FFE7009801999DF81F209200BF
:104FD00091400843059948620AB0704782B0019039
:104FE000009100980199886102B070478AB00590DD
:104FF00004910392059800680290049890FAA0F03A
:105000000890089820B9FFE720208DF8270005E0D8
:105010000898B0FA80F08DF82700FFE702989DF815
:1050200027104A0003219140884300900398019083
:10503000049890FAA0F00690069820B9FFE7202087
:105040008DF81F0005E00698B0FA80F08DF81F007B
:10505000FFE7009801999DF81F20520091400843F6
:10506000059908600AB0704783B0029001910092E0
:105070000298406801998843009A51430843029975
:10508000486003B0704700008AB005900491039215
:105090000598C0680290049890FAA0F008900898CB
:1050A00020B9FFE720208DF8270005E00898B0FA26
:1050B00080F08DF82700FFE702989DF827104A003E
:1050C000032191408843009003980190049890FA3E
:1050D000A0F00690069820B9FFE720208DF81F0069
:1050E00005E00698B0FA80F08DF81F00FFE7009801
:1050F00001999DF81F205200914008430599C8600E
:105100000AB070478AB005900491039205988068B0
:105110000290049890FAA0F00890089820B9FFE750
:1051200020208DF8270005E00898B0FA80F08DF86F
:105130002700FFE702989DF827104A0003219140BD
:105140008843009003980190049890FAA0F006908C
:10515000069820B9FFE720208DF81F0005E006988B
:10516000B0FA80F08DF81F00FFE7009801999DF8D4
:105170001F20520091400843059988600AB070478B
:1051800082B0019000910198406820F4004000999D
:1051900008430199486002B07047000083B0029054
:1051A000019100920298006820F4F8500199009A49
:1051B00041EA022108430299086003B070470000E9
:1051C00081B000900099086820F00100086001B0EB
:1051D0007047000081B000900099086820F400201A
:1051E000086001B07047000081B0009000998868A5
:1051F00020F40040886001B07047000081B000904A
:105200000099C86820F40040C86001B070470000F1
:1052100081B000900099086840F00100086001B07A
:105220007047000081B000900099486840F000701D
:10523000486001B07047000081B000900099086894
:1052400020F40030086001B07047000081B0009089
:105250000099886840F40040886001B07047000001
:1052600080B582B0019000910198FFF7A9FF0198E5
:10527000009A9168D268FFF791FF019800994968F8
:1052800000F054F80198FFF7C3FF0198FFF7ACFF57
:105290000198009A1169926900F024F80098006959
:1052A00020B1FFE70198FFF7D1FFFFE701980099D0
:1052B000096800F009F8019800994969FFF760FF53
:1052C000002002B080BD000082B0019000910198E2
:1052D000006820F44010009908430199086002B06A
:1052E0007047000083B0029001910092029880689C
:1052F00040F2FF7188430199009A114308430299D3
:10530000886003B07047000083B002900191009262
:105310000298C06840F2FE7188430199009A1143D7
:1053200008430299C86003B07047000082B0019042
:10533000009100980199086102B0704782B0019015
:1053400000910198C06820F001000099084301997C
:10535000C86002B07047000082B0019000910198CF
:10536000C06820F40000009908430199C86002B0A9
:105370007047000082B0019000910198006A20F00F
:105380000D00009908430199086202B070470000BF
:1053900082B0019000910198006A20F032000099DB
:1053A00008430199086202B07047000082B0019082
:1053B00000910198C06820F40010009908430199F9
:1053C000C86002B07047000082B00190009101985F
:1053D000C06820F46060009908430199C86002B079
:1053E0007047000082B0019000910198C06820F4DD
:1053F0008000009908430199C86002B0704700001E
:1054000081B000900099C86820F4C020C86001B045
:105410007047000047F28001C4F20001086820F4E0
:10542000807008607047000041F20800C4F202007A
:10543000006800F00C00704741F20001C4F2020164
:10544000086840F4803008607047000041F20000B6
:10545000C4F202000068C0F34040704741F2980176
:10546000C4F20201086840F00100086070470000C3
:1054700041F29800C4F202000068C0F34000704797
:1054800084B0039002910192009341F20C01C4F2A6
:105490000201086848F20C02CFF6FF121040039A8E
:1054A000029B1A43019B42EA0322009B1A431043CA
:1054B000086004B07047000041F20001C4F202012C
:1054C000086840F0807008607047000041F20C01ED
:1054D000C4F20201086840F0807008607047000064
:1054E00041F20000C4F202000068C0F3406070475F
:1054F00081B0009041F28801C4F202010868009A6C
:10550000C2F304434FF0030C0CFA03FC20EA0C0036
:10551000D2B29A401043086001B0704781B0009049
:1055200041F20801C4F20201086820F0F000009A7C
:105530001043086001B0704781B0009041F208014B
:10554000C4F20201086820F4E060009A1043086089
:1055500001B0704781B0009041F20801C4F202012D
:10556000086820F46050009A1043086001B070474A
:1055700081B0009041F28801C4F20201086820F075
:105580004070009A1043086001B0704782B00190EB
:105590009DF8070041F28801C4F20201084400901E
:1055A000009800680199C1F3044203239340984393
:1055B000C9B2914008430099086002B070470000EA
:1055C00081B0009041F28801C4F20201086820F421
:1055D0004020009A1043086001B0704781B00090ED
:1055E00041F20801C4F20201086820F00300009AA9
:1055F0001043086001B0704781B0009041F288010B
:10560000C4F20201086820F04060009A104308606C
:1056100001B0704781B000900099486840F00800E0
:10562000486001B07047000080B584B003900291DB
:1056300001208DF80700039800F052F8002846D1A9
:10564000FFE7039800684FF6BF718843029A009203
:105650001168D2F804E0D2F80CC0136941EA0E01D7
:1056600041EA0C0119435369194393691943D369FA
:105670001943126A1143084303990860039840686C
:1056800040F604718843029A9168D28A1143084314
:1056900003994860029881680020B0EBD12F06D1B1
:1056A000FFE703984FF4805100F02CF8FFE70298D1
:1056B000006AB0F5005F06D1FFE703980299496AD6
:1056C00000F016F8FFE700208DF80700FFE70399C8
:1056D000C86920F40060C8619DF8070004B080BD6F
:1056E00081B0009000980068C0F3801001B070474E
:1056F00082B001900091BDF800000199086102B0EC
:105700007047000082B0019000910198406820F439
:105710008050009908430199486002B0704700002A
:1057200082B0019000910198406820F0100000992B
:1057300008430199486002B07047000081B00090B2
:10574000009840F22401C2F20001086001B07047E5
:1057500083B002900191002000900198007B8DF8A9
:105760000000009820F44070019989680843009077
:10577000009820F4806001994968084300900098DF
:1057800020F400600199096808430090009820F413
:1057900080500199C98908430090009820F4005076
:1057A0000199096908430090009820F4804001990C
:1057B000C96A08430090009820F400400199C96A22
:1057C00008430090029842F60041C4F20101884269
:1057D00008D0FFE7029843F20041C4F20101884279
:1057E0000FD1FFE7009820F4702001994969084320
:1057F0000090009820F0805001998969084300903A
:10580000FFE7029842F60041C4F20101884208D045
:10581000FFE7029843F20041C4F2010188421DD122
:10582000FFE7009820F470000199496A084300904E
:10583000009820F080700199C96908430090009891
:1058400020F000700199096A08430090009820F048
:1058500000500199896A08430090FFE70098029977
:105860004864002003B0704782B001900091009A14
:105870000199086A1043086202B0704781B0009035
:1058800000996FF00100086101B0704781B000908D
:1058900000996FF00100086101B0704781B000907D
:1058A0000099086820F08000086001B0704700008F
:1058B00081B000900099886820F08000886001B075
:1058C0007047000081B000900099086840F08000A7
:1058D000086001B07047000081B000900099486CEA
:1058E00040F40040486401B07047000081B000906F
:1058F0000099086840F00100086001B0704700009E
:1059000081B000900099086840F00100086001B083
:105910007047000081B000900099C86840F0010015
:10592000C86001B07047000081B0009000994869DC
:1059300040F00100486101B07047000081B0009064
:105940000098406A01B0704780B584B0039002911E
:10595000039800680190039842F60041C4F20101E7
:1059600088421DD0FFE70398B0F1804F18D0FFE7C1
:10597000039840F20041C4F20001884210D0FFE7D2
:10598000039840F60001C4F20001884208D0FFE706
:10599000039843F20041C4F20101884208D1FFE7B5
:1059A000019820F070000299496808430190FFE7D0
:1059B000039842F60041C4F20101884235D0FFE766
:1059C0000398B0F1804F30D0FFE7039840F20041D8
:1059D000C4F20001884228D0FFE7039840F6000196
:1059E000C4F20001884220D0FFE7039843F200414F
:1059F000C4F20101884218D0FFE7039844F2000185
:105A0000C4F20101884210D0FFE7039844F200413C
:105A1000C4F20101884208D0FFE7039844F6000170
:105A2000C4F20101884208D1FFE7019820F44070D8
:105A30000299C96808430190FFE70198039908603B
:105A400003980299896800F0BBF9039802990988C4
:105A500000F0CEF9039842F60041C4F201018842F9
:105A600020D0FFE7039843F20041C4F201018842CD
:105A700018D0FFE7039844F20001C4F20101884204
:105A800010D0FFE7039844F20041C4F201018842BC
:105A900008D0FFE7039844F60001C4F201018842F0
:105AA00006D1FFE703980299096900F0A9F9FFE719
:105AB0000398FFF739FF002004B080BD81B000904B
:105AC0000098006900F0010001B070478CB00B90A5
:105AD0000A910A98012803D1FFE70020079051E0BE
